{
  "contractName": "SolnSquareVerifier",
  "abi": [
    {
      "inputs": [
        {
          "internalType": "address",
          "name": "verifierAddress",
          "type": "address"
        }
      ],
      "stateMutability": "nonpayable",
      "type": "constructor"
    },
    {
      "anonymous": false,
      "inputs": [
        {
          "indexed": true,
          "internalType": "address",
          "name": "owner",
          "type": "address"
        },
        {
          "indexed": true,
          "internalType": "address",
          "name": "approved",
          "type": "address"
        },
        {
          "indexed": true,
          "internalType": "uint256",
          "name": "tokenId",
          "type": "uint256"
        }
      ],
      "name": "Approval",
      "type": "event"
    },
    {
      "anonymous": false,
      "inputs": [
        {
          "indexed": true,
          "internalType": "address",
          "name": "owner",
          "type": "address"
        },
        {
          "indexed": true,
          "internalType": "address",
          "name": "operator",
          "type": "address"
        },
        {
          "indexed": false,
          "internalType": "bool",
          "name": "approved",
          "type": "bool"
        }
      ],
      "name": "ApprovalForAll",
      "type": "event"
    },
    {
      "anonymous": false,
      "inputs": [
        {
          "indexed": false,
          "internalType": "address",
          "name": "oldOwner",
          "type": "address"
        },
        {
          "indexed": false,
          "internalType": "address",
          "name": "newOwner",
          "type": "address"
        }
      ],
      "name": "OwnershipTransferred",
      "type": "event"
    },
    {
      "anonymous": false,
      "inputs": [
        {
          "indexed": false,
          "internalType": "address",
          "name": "user",
          "type": "address"
        }
      ],
      "name": "Paused",
      "type": "event"
    },
    {
      "anonymous": false,
      "inputs": [
        {
          "indexed": true,
          "internalType": "address",
          "name": "owner",
          "type": "address"
        },
        {
          "indexed": true,
          "internalType": "uint256",
          "name": "tokenID",
          "type": "uint256"
        }
      ],
      "name": "SolutionAdded",
      "type": "event"
    },
    {
      "anonymous": false,
      "inputs": [
        {
          "indexed": true,
          "internalType": "address",
          "name": "from",
          "type": "address"
        },
        {
          "indexed": true,
          "internalType": "address",
          "name": "to",
          "type": "address"
        },
        {
          "indexed": true,
          "internalType": "uint256",
          "name": "tokenId",
          "type": "uint256"
        }
      ],
      "name": "Transfer",
      "type": "event"
    },
    {
      "anonymous": false,
      "inputs": [
        {
          "indexed": false,
          "internalType": "address",
          "name": "user",
          "type": "address"
        }
      ],
      "name": "Unpaused",
      "type": "event"
    },
    {
      "inputs": [
        {
          "internalType": "bytes32",
          "name": "_myid",
          "type": "bytes32"
        },
        {
          "internalType": "string",
          "name": "_result",
          "type": "string"
        }
      ],
      "name": "__callback",
      "outputs": [],
      "stateMutability": "nonpayable",
      "type": "function"
    },
    {
      "inputs": [
        {
          "internalType": "bytes32",
          "name": "_myid",
          "type": "bytes32"
        },
        {
          "internalType": "string",
          "name": "_result",
          "type": "string"
        },
        {
          "internalType": "bytes",
          "name": "_proof",
          "type": "bytes"
        }
      ],
      "name": "__callback",
      "outputs": [],
      "stateMutability": "nonpayable",
      "type": "function"
    },
    {
      "inputs": [
        {
          "internalType": "address",
          "name": "to",
          "type": "address"
        },
        {
          "internalType": "uint256",
          "name": "tokenId",
          "type": "uint256"
        }
      ],
      "name": "approve",
      "outputs": [],
      "stateMutability": "nonpayable",
      "type": "function"
    },
    {
      "inputs": [
        {
          "internalType": "address",
          "name": "owner",
          "type": "address"
        }
      ],
      "name": "balanceOf",
      "outputs": [
        {
          "internalType": "uint256",
          "name": "",
          "type": "uint256"
        }
      ],
      "stateMutability": "view",
      "type": "function",
      "constant": true
    },
    {
      "inputs": [],
      "name": "baseTokenURI",
      "outputs": [
        {
          "internalType": "string",
          "name": "",
          "type": "string"
        }
      ],
      "stateMutability": "view",
      "type": "function",
      "constant": true
    },
    {
      "inputs": [
        {
          "internalType": "uint256",
          "name": "tokenId",
          "type": "uint256"
        }
      ],
      "name": "getApproved",
      "outputs": [
        {
          "internalType": "address",
          "name": "",
          "type": "address"
        }
      ],
      "stateMutability": "view",
      "type": "function",
      "constant": true
    },
    {
      "inputs": [
        {
          "internalType": "address",
          "name": "owner",
          "type": "address"
        },
        {
          "internalType": "address",
          "name": "operator",
          "type": "address"
        }
      ],
      "name": "isApprovedForAll",
      "outputs": [
        {
          "internalType": "bool",
          "name": "",
          "type": "bool"
        }
      ],
      "stateMutability": "view",
      "type": "function",
      "constant": true
    },
    {
      "inputs": [],
      "name": "name",
      "outputs": [
        {
          "internalType": "string",
          "name": "",
          "type": "string"
        }
      ],
      "stateMutability": "view",
      "type": "function",
      "constant": true
    },
    {
      "inputs": [],
      "name": "owner",
      "outputs": [
        {
          "internalType": "address",
          "name": "",
          "type": "address"
        }
      ],
      "stateMutability": "view",
      "type": "function",
      "constant": true
    },
    {
      "inputs": [
        {
          "internalType": "uint256",
          "name": "tokenId",
          "type": "uint256"
        }
      ],
      "name": "ownerOf",
      "outputs": [
        {
          "internalType": "address",
          "name": "",
          "type": "address"
        }
      ],
      "stateMutability": "view",
      "type": "function",
      "constant": true
    },
    {
      "inputs": [],
      "name": "pause",
      "outputs": [],
      "stateMutability": "nonpayable",
      "type": "function"
    },
    {
      "inputs": [
        {
          "internalType": "address",
          "name": "from",
          "type": "address"
        },
        {
          "internalType": "address",
          "name": "to",
          "type": "address"
        },
        {
          "internalType": "uint256",
          "name": "tokenId",
          "type": "uint256"
        }
      ],
      "name": "safeTransferFrom",
      "outputs": [],
      "stateMutability": "nonpayable",
      "type": "function"
    },
    {
      "inputs": [
        {
          "internalType": "address",
          "name": "from",
          "type": "address"
        },
        {
          "internalType": "address",
          "name": "to",
          "type": "address"
        },
        {
          "internalType": "uint256",
          "name": "tokenId",
          "type": "uint256"
        },
        {
          "internalType": "bytes",
          "name": "_data",
          "type": "bytes"
        }
      ],
      "name": "safeTransferFrom",
      "outputs": [],
      "stateMutability": "nonpayable",
      "type": "function"
    },
    {
      "inputs": [
        {
          "internalType": "address",
          "name": "to",
          "type": "address"
        },
        {
          "internalType": "bool",
          "name": "approved",
          "type": "bool"
        }
      ],
      "name": "setApprovalForAll",
      "outputs": [],
      "stateMutability": "nonpayable",
      "type": "function"
    },
    {
      "inputs": [
        {
          "internalType": "bytes4",
          "name": "interfaceId",
          "type": "bytes4"
        }
      ],
      "name": "supportsInterface",
      "outputs": [
        {
          "internalType": "bool",
          "name": "",
          "type": "bool"
        }
      ],
      "stateMutability": "view",
      "type": "function",
      "constant": true
    },
    {
      "inputs": [],
      "name": "symbol",
      "outputs": [
        {
          "internalType": "string",
          "name": "",
          "type": "string"
        }
      ],
      "stateMutability": "view",
      "type": "function",
      "constant": true
    },
    {
      "inputs": [
        {
          "internalType": "uint256",
          "name": "index",
          "type": "uint256"
        }
      ],
      "name": "tokenByIndex",
      "outputs": [
        {
          "internalType": "uint256",
          "name": "",
          "type": "uint256"
        }
      ],
      "stateMutability": "view",
      "type": "function",
      "constant": true
    },
    {
      "inputs": [
        {
          "internalType": "address",
          "name": "owner",
          "type": "address"
        },
        {
          "internalType": "uint256",
          "name": "index",
          "type": "uint256"
        }
      ],
      "name": "tokenOfOwnerByIndex",
      "outputs": [
        {
          "internalType": "uint256",
          "name": "",
          "type": "uint256"
        }
      ],
      "stateMutability": "view",
      "type": "function",
      "constant": true
    },
    {
      "inputs": [
        {
          "internalType": "uint256",
          "name": "tokenId",
          "type": "uint256"
        }
      ],
      "name": "tokenURI",
      "outputs": [
        {
          "internalType": "string",
          "name": "",
          "type": "string"
        }
      ],
      "stateMutability": "view",
      "type": "function",
      "constant": true
    },
    {
      "inputs": [],
      "name": "totalSupply",
      "outputs": [
        {
          "internalType": "uint256",
          "name": "",
          "type": "uint256"
        }
      ],
      "stateMutability": "view",
      "type": "function",
      "constant": true
    },
    {
      "inputs": [
        {
          "internalType": "address",
          "name": "from",
          "type": "address"
        },
        {
          "internalType": "address",
          "name": "to",
          "type": "address"
        },
        {
          "internalType": "uint256",
          "name": "tokenId",
          "type": "uint256"
        }
      ],
      "name": "transferFrom",
      "outputs": [],
      "stateMutability": "nonpayable",
      "type": "function"
    },
    {
      "inputs": [
        {
          "internalType": "address",
          "name": "newOwner",
          "type": "address"
        }
      ],
      "name": "transferOwnership",
      "outputs": [],
      "stateMutability": "nonpayable",
      "type": "function"
    },
    {
      "inputs": [
        {
          "components": [
            {
              "components": [
                {
                  "internalType": "uint256",
                  "name": "X",
                  "type": "uint256"
                },
                {
                  "internalType": "uint256",
                  "name": "Y",
                  "type": "uint256"
                }
              ],
              "internalType": "struct Pairing.G1Point",
              "name": "a",
              "type": "tuple"
            },
            {
              "components": [
                {
                  "internalType": "uint256[2]",
                  "name": "X",
                  "type": "uint256[2]"
                },
                {
                  "internalType": "uint256[2]",
                  "name": "Y",
                  "type": "uint256[2]"
                }
              ],
              "internalType": "struct Pairing.G2Point",
              "name": "b",
              "type": "tuple"
            },
            {
              "components": [
                {
                  "internalType": "uint256",
                  "name": "X",
                  "type": "uint256"
                },
                {
                  "internalType": "uint256",
                  "name": "Y",
                  "type": "uint256"
                }
              ],
              "internalType": "struct Pairing.G1Point",
              "name": "c",
              "type": "tuple"
            }
          ],
          "internalType": "struct Verifier.Proof",
          "name": "proof",
          "type": "tuple"
        },
        {
          "internalType": "uint256[2]",
          "name": "input",
          "type": "uint256[2]"
        },
        {
          "internalType": "address",
          "name": "account",
          "type": "address"
        },
        {
          "internalType": "uint256",
          "name": "tokenID",
          "type": "uint256"
        }
      ],
      "name": "addSolution",
      "outputs": [],
      "stateMutability": "nonpayable",
      "type": "function"
    },
    {
      "inputs": [
        {
          "internalType": "address",
          "name": "to",
          "type": "address"
        },
        {
          "internalType": "uint256",
          "name": "tokenID",
          "type": "uint256"
        }
      ],
      "name": "mint",
      "outputs": [
        {
          "internalType": "bool",
          "name": "",
          "type": "bool"
        }
      ],
      "stateMutability": "nonpayable",
      "type": "function"
    }
  ],
  "bytecode": "0x60806040523480156200001157600080fd5b5060405162004540380380620045408339818101604052810190620000379190620003d1565b6040518060400160405280601281526020017f456d7069726520486f6d657320546f6b656e00000000000000000000000000008152506040518060400160405280600381526020017f45485400000000000000000000000000000000000000000000000000000000008152506040518060600160405280603f815260200162004501603f9139336000806101000a81548173ffffffffffffffffffffffffffffffffffffffff021916908373ffffffffffffffffffffffffffffffffffffffff1602179055507f8be0079c531659141344cd1fd0a4f28419497f9722a3daafe3b4186f6b6457e060008060009054906101000a900473ffffffffffffffffffffffffffffffffffffffff16604051620001529291906200040e565b60405180910390a160008060146101000a81548160ff0219169083151502179055506200018c6301ffc9a760e01b6200026a60201b60201c565b620001a46380ac58cd60e01b6200026a60201b60201c565b620001bc63780e9d6360e01b6200026a60201b60201c565b82600f9080519060200190620001d49291906200030a565b508160109080519060200190620001ed9291906200030a565b508060119080519060200190620002069291906200030a565b506200021f635b5e139f60e01b6200026a60201b60201c565b50505080601360006101000a81548173ffffffffffffffffffffffffffffffffffffffff021916908373ffffffffffffffffffffffffffffffffffffffff16021790555050620004ee565b63ffffffff60e01b817bffffffffffffffffffffffffffffffffffffffffffffffffffffffff191614156200029e57600080fd5b6001806000837bffffffffffffffffffffffffffffffffffffffffffffffffffffffff19167bffffffffffffffffffffffffffffffffffffffffffffffffffffffff1916815260200190815260200160002060006101000a81548160ff02191690831515021790555050565b82805462000318906200046f565b90600052602060002090601f0160209004810192826200033c576000855562000388565b82601f106200035757805160ff191683800117855562000388565b8280016001018555821562000388579182015b82811115620003875782518255916020019190600101906200036a565b5b5090506200039791906200039b565b5090565b5b80821115620003b65760008160009055506001016200039c565b5090565b600081519050620003cb81620004d4565b92915050565b600060208284031215620003e457600080fd5b6000620003f484828501620003ba565b91505092915050565b62000408816200043b565b82525050565b6000604082019050620004256000830185620003fd565b620004346020830184620003fd565b9392505050565b600062000448826200044f565b9050919050565b600073ffffffffffffffffffffffffffffffffffffffff82169050919050565b600060028204905060018216806200048857607f821691505b602082108114156200049f576200049e620004a5565b5b50919050565b7f4e487b7100000000000000000000000000000000000000000000000000000000600052602260045260246000fd5b620004df816200043b565b8114620004eb57600080fd5b50565b61400380620004fe6000396000f3fe608060405234801561001057600080fd5b50600436106101585760003560e01c80634f6ccce7116100c3578063a22cb4651161007c578063a22cb465146103d7578063b88d4fde146103f3578063c87b56dd1461040f578063d547cfb71461043f578063e985e9c51461045d578063f2fde38b1461048d57610158565b80634f6ccce7146103015780636352211e1461033157806370a08231146103615780638456cb59146103915780638da5cb5b1461039b57806395d89b41146103b957610158565b806323b872dd1161011557806323b872dd1461023157806327dc297e1461024d5780632f745c591461026957806338bbfa501461029957806340c10f19146102b557806342842e0e146102e557610158565b806301ffc9a71461015d57806306fdde031461018d578063081812fc146101ab578063095ea7b3146101db5780630ad3ec32146101f757806318160ddd14610213575b600080fd5b61017760048036038101906101729190612f9f565b6104a9565b6040516101849190613530565b60405180910390f35b610195610511565b6040516101a2919061354b565b60405180910390f35b6101c560048036038101906101c09190613058565b6105a3565b6040516101d291906134a0565b60405180910390f35b6101f560048036038101906101f09190612e67565b610628565b005b610211600480360381019061020c9190612ff1565b61083b565b005b61021b610b22565b6040516102289190613738565b60405180910390f35b61024b60048036038101906102469190612d61565b610b2f565b005b61026760048036038101906102629190612ecc565b610b52565b005b610283600480360381019061027e9190612e67565b610bd4565b6040516102909190613738565b60405180910390f35b6102b360048036038101906102ae9190612f20565b610c74565b005b6102cf60048036038101906102ca9190612e67565b610c97565b6040516102dc9190613530565b60405180910390f35b6102ff60048036038101906102fa9190612d61565b610e59565b005b61031b60048036038101906103169190613058565b610e79565b6040516103289190613738565b60405180910390f35b61034b60048036038101906103469190613058565b610eda565b60405161035891906134a0565b60405180910390f35b61037b60048036038101906103769190612cfc565b610f17565b6040516103889190613738565b60405180910390f35b610399610f67565b005b6103a3610ff9565b6040516103b091906134a0565b60405180910390f35b6103c1611022565b6040516103ce919061354b565b60405180910390f35b6103f160048036038101906103ec9190612e2b565b6110b4565b005b61040d60048036038101906104089190612db0565b6111ea565b005b61042960048036038101906104249190613058565b611210565b604051610436919061354b565b60405180910390f35b6104476112c7565b604051610454919061354b565b60405180910390f35b61047760048036038101906104729190612d25565b611359565b6040516104849190613530565b60405180910390f35b6104a760048036038101906104a29190612cfc565b6113ed565b005b600060016000837bffffffffffffffffffffffffffffffffffffffffffffffffffffffff19167bffffffffffffffffffffffffffffffffffffffffffffffffffffffff1916815260200190815260200160002060009054906101000a900460ff169050919050565b6060600f805461052090613a15565b80601f016020809104026020016040519081016040528092919081815260200182805461054c90613a15565b80156105995780601f1061056e57610100808354040283529160200191610599565b820191906000526020600020905b81548152906001019060200180831161057c57829003601f168201915b5050505050905090565b60006105ae8261156e565b6105ed576040517f08c379a00000000000000000000000000000000000000000000000000000000081526004016105e49061360d565b60405180910390fd5b6003600083815260200190815260200160002060009054906101000a900473ffffffffffffffffffffffffffffffffffffffff169050919050565b6002600082815260200190815260200160002060009054906101000a900473ffffffffffffffffffffffffffffffffffffffff1673ffffffffffffffffffffffffffffffffffffffff168273ffffffffffffffffffffffffffffffffffffffff1614156106ca576040517f08c379a00000000000000000000000000000000000000000000000000000000081526004016106c1906136ed565b60405180910390fd5b6002600082815260200190815260200160002060009054906101000a900473ffffffffffffffffffffffffffffffffffffffff1673ffffffffffffffffffffffffffffffffffffffff163373ffffffffffffffffffffffffffffffffffffffff161480610744575061074361073d610ff9565b33611359565b5b610783576040517f08c379a000000000000000000000000000000000000000000000000000000000815260040161077a9061362d565b60405180910390fd5b816003600083815260200190815260200160002060006101000a81548173ffffffffffffffffffffffffffffffffffffffff021916908373ffffffffffffffffffffffffffffffffffffffff160217905550808273ffffffffffffffffffffffffffffffffffffffff166107f5610ff9565b73ffffffffffffffffffffffffffffffffffffffff167f8c5be1e5ebec7d5bd14f71427d1e84f3dd0314c0f7b2291e5b200ac8c7c3b92560405160405180910390a45050565b601360009054906101000a900473ffffffffffffffffffffffffffffffffffffffff1673ffffffffffffffffffffffffffffffffffffffff166343cd76fc85856040518363ffffffff1660e01b815260040161089892919061370d565b60206040518083038186803b1580156108b057600080fd5b505afa1580156108c4573d6000803e3d6000fd5b505050506040513d601f19601f820116820180604052508101906108e89190612ea3565b610927576040517f08c379a000000000000000000000000000000000000000000000000000000000815260040161091e906135ed565b60405180910390fd5b600083600060028110610963577f4e487b7100000000000000000000000000000000000000000000000000000000600052603260045260246000fd5b6020020151846001600281106109a2577f4e487b7100000000000000000000000000000000000000000000000000000000600052603260045260246000fd5b60200201516040516020016109b8929190613474565b6040516020818303038152906040528051906020012090506000601460008381526020019081526020016000206003015414610a29576040517f08c379a0000000000000000000000000000000000000000000000000000000008152600401610a20906136cd565b60405180910390fd5b806015600084815260200190815260200160002081905550826014600083815260200190815260200160002060040160006101000a81548173ffffffffffffffffffffffffffffffffffffffff021916908373ffffffffffffffffffffffffffffffffffffffff1602179055508160146000838152602001908152602001600020600301819055508360146000838152602001908152602001600020600101906002610ad6929190612933565b50818373ffffffffffffffffffffffffffffffffffffffff167f3a01cc868bdb36c1d9b8a262a8ad25064b23ac175b3f8e4453f1daf8ff6bac0d60405160405180910390a35050505050565b6000600880549050905090565b610b3933826115e0565b610b4257600080fd5b610b4d838383611675565b505050565b610bd08282600067ffffffffffffffff811115610b98577f4e487b7100000000000000000000000000000000000000000000000000000000600052604160045260246000fd5b6040519080825280601f01601f191660200182016040528015610bca5781602001600182028036833780820191505090505b50610c74565b5050565b6000610bdf83610f17565b8210610bea57600080fd5b600660008473ffffffffffffffffffffffffffffffffffffffff1673ffffffffffffffffffffffffffffffffffffffff1681526020019081526020016000208281548110610c61577f4e487b7100000000000000000000000000000000000000000000000000000000600052603260045260246000fd5b9060005260206000200154905092915050565b6000801b600d60008060001b815260200190815260200160002081905550505050565b600080601560008481526020019081526020016000205490506000801b811415610cf6576040517f08c379a0000000000000000000000000000000000000000000000000000000008152600401610ced906136ad565b60405180910390fd5b6014600082815260200190815260200160002060040160149054906101000a900460ff1615610d5a576040517f08c379a0000000000000000000000000000000000000000000000000000000008152600401610d519061368d565b60405180910390fd5b6000601460006015600087815260200190815260200160002054815260200190815260200160002060040160009054906101000a900473ffffffffffffffffffffffffffffffffffffffff1690508473ffffffffffffffffffffffffffffffffffffffff168173ffffffffffffffffffffffffffffffffffffffff1614610e16576040517f08c379a0000000000000000000000000000000000000000000000000000000008152600401610e0d906135ad565b60405180910390fd5b60016014600084815260200190815260200160002060040160146101000a81548160ff021916908315150217905550610e4f8585611699565b9250505092915050565b610e74838383604051806020016040528060008152506111ea565b505050565b6000610e83610b22565b8210610e8e57600080fd5b60088281548110610ec8577f4e487b7100000000000000000000000000000000000000000000000000000000600052603260045260246000fd5b90600052602060002001549050919050565b60006002600083815260200190815260200160002060009054906101000a900473ffffffffffffffffffffffffffffffffffffffff169050919050565b6000610f60600460008473ffffffffffffffffffffffffffffffffffffffff1673ffffffffffffffffffffffffffffffffffffffff16815260200190815260200160002061172d565b9050919050565b610f6f610ff9565b73ffffffffffffffffffffffffffffffffffffffff163373ffffffffffffffffffffffffffffffffffffffff1614610fdc576040517f08c379a0000000000000000000000000000000000000000000000000000000008152600401610fd39061364d565b60405180910390fd5b6001600060146101000a81548160ff021916908315150217905550565b60008060009054906101000a900473ffffffffffffffffffffffffffffffffffffffff16905090565b60606010805461103190613a15565b80601f016020809104026020016040519081016040528092919081815260200182805461105d90613a15565b80156110aa5780601f1061107f576101008083540402835291602001916110aa565b820191906000526020600020905b81548152906001019060200180831161108d57829003601f168201915b5050505050905090565b3373ffffffffffffffffffffffffffffffffffffffff168273ffffffffffffffffffffffffffffffffffffffff1614156110ed57600080fd5b80600560003373ffffffffffffffffffffffffffffffffffffffff1673ffffffffffffffffffffffffffffffffffffffff16815260200190815260200160002060008473ffffffffffffffffffffffffffffffffffffffff1673ffffffffffffffffffffffffffffffffffffffff16815260200190815260200160002060006101000a81548160ff0219169083151502179055508173ffffffffffffffffffffffffffffffffffffffff163373ffffffffffffffffffffffffffffffffffffffff167f17307eab39ab6107e8899845ad3d59bd9653f200f220920489ca2b5937696c31836040516111de9190613530565b60405180910390a35050565b6111f5848484610b2f565b6112018484848461173b565b61120a57600080fd5b50505050565b606061121b8261156e565b61122457600080fd5b60126000838152602001908152602001600020805461124290613a15565b80601f016020809104026020016040519081016040528092919081815260200182805461126e90613a15565b80156112bb5780601f10611290576101008083540402835291602001916112bb565b820191906000526020600020905b81548152906001019060200180831161129e57829003601f168201915b50505050509050919050565b6060601180546112d690613a15565b80601f016020809104026020016040519081016040528092919081815260200182805461130290613a15565b801561134f5780601f106113245761010080835404028352916020019161134f565b820191906000526020600020905b81548152906001019060200180831161133257829003601f168201915b5050505050905090565b6000600560008473ffffffffffffffffffffffffffffffffffffffff1673ffffffffffffffffffffffffffffffffffffffff16815260200190815260200160002060008373ffffffffffffffffffffffffffffffffffffffff1673ffffffffffffffffffffffffffffffffffffffff16815260200190815260200160002060009054906101000a900460ff16905092915050565b6113f5610ff9565b73ffffffffffffffffffffffffffffffffffffffff163373ffffffffffffffffffffffffffffffffffffffff1614611462576040517f08c379a00000000000000000000000000000000000000000000000000000000081526004016114599061364d565b60405180910390fd5b600073ffffffffffffffffffffffffffffffffffffffff168173ffffffffffffffffffffffffffffffffffffffff1614156114d2576040517f08c379a00000000000000000000000000000000000000000000000000000000081526004016114c99061366d565b60405180910390fd5b7f8be0079c531659141344cd1fd0a4f28419497f9722a3daafe3b4186f6b6457e060008054906101000a900473ffffffffffffffffffffffffffffffffffffffff16826040516115239291906134bb565b60405180910390a1806000806101000a81548173ffffffffffffffffffffffffffffffffffffffff021916908373ffffffffffffffffffffffffffffffffffffffff16021790555050565b6000806002600084815260200190815260200160002060009054906101000a900473ffffffffffffffffffffffffffffffffffffffff169050600073ffffffffffffffffffffffffffffffffffffffff168173ffffffffffffffffffffffffffffffffffffffff161415915050919050565b6000806115ec83610eda565b90508073ffffffffffffffffffffffffffffffffffffffff168473ffffffffffffffffffffffffffffffffffffffff16148061165b57508373ffffffffffffffffffffffffffffffffffffffff16611643846105a3565b73ffffffffffffffffffffffffffffffffffffffff16145b8061166c575061166b8185611359565b5b91505092915050565b611680838383611852565b61168a8382611aac565b6116948282611cd5565b505050565b60006116a3610ff9565b73ffffffffffffffffffffffffffffffffffffffff163373ffffffffffffffffffffffffffffffffffffffff1614611710576040517f08c379a00000000000000000000000000000000000000000000000000000000081526004016117079061364d565b60405180910390fd5b61171a8383611d99565b61172382611dba565b6001905092915050565b600081600001549050919050565b600061175c8473ffffffffffffffffffffffffffffffffffffffff16611ec8565b611769576001905061184a565b60008473ffffffffffffffffffffffffffffffffffffffff1663150b7a02338887876040518563ffffffff1660e01b81526004016117aa94939291906134e4565b602060405180830381600087803b1580156117c457600080fd5b505af11580156117d8573d6000803e3d6000fd5b505050506040513d601f19601f820116820180604052508101906117fc9190612fc8565b905063150b7a0260e01b7bffffffffffffffffffffffffffffffffffffffffffffffffffffffff1916817bffffffffffffffffffffffffffffffffffffffffffffffffffffffff1916149150505b949350505050565b8273ffffffffffffffffffffffffffffffffffffffff166002600083815260200190815260200160002060009054906101000a900473ffffffffffffffffffffffffffffffffffffffff1673ffffffffffffffffffffffffffffffffffffffff16146118f3576040517f08c379a00000000000000000000000000000000000000000000000000000000081526004016118ea906135cd565b60405180910390fd5b600073ffffffffffffffffffffffffffffffffffffffff168273ffffffffffffffffffffffffffffffffffffffff161415611963576040517f08c379a000000000000000000000000000000000000000000000000000000000815260040161195a9061356d565b60405180910390fd5b61196c81611eeb565b6119b3600460008573ffffffffffffffffffffffffffffffffffffffff1673ffffffffffffffffffffffffffffffffffffffff168152602001908152602001600020611fa9565b6119fa600460008473ffffffffffffffffffffffffffffffffffffffff1673ffffffffffffffffffffffffffffffffffffffff168152602001908152602001600020612005565b816002600083815260200190815260200160002060006101000a81548173ffffffffffffffffffffffffffffffffffffffff021916908373ffffffffffffffffffffffffffffffffffffffff160217905550808273ffffffffffffffffffffffffffffffffffffffff168473ffffffffffffffffffffffffffffffffffffffff167fddf252ad1be2c89b69c2b068fc378daa952ba7f163c4a11628f55a4df523b3ef60405160405180910390a4505050565b60006001600660008573ffffffffffffffffffffffffffffffffffffffff1673ffffffffffffffffffffffffffffffffffffffff16815260200190815260200160002080549050611afd91906138f7565b9050600060076000848152602001908152602001600020549050818114611c44576000600660008673ffffffffffffffffffffffffffffffffffffffff1673ffffffffffffffffffffffffffffffffffffffff1681526020019081526020016000208381548110611b97577f4e487b7100000000000000000000000000000000000000000000000000000000600052603260045260246000fd5b9060005260206000200154905080600660008773ffffffffffffffffffffffffffffffffffffffff1673ffffffffffffffffffffffffffffffffffffffff1681526020019081526020016000208381548110611c1c577f4e487b7100000000000000000000000000000000000000000000000000000000600052603260045260246000fd5b9060005260206000200181905550816007600083815260200190815260200160002081905550505b600660008573ffffffffffffffffffffffffffffffffffffffff1673ffffffffffffffffffffffffffffffffffffffff168152602001908152602001600020805480611cb9577f4e487b7100000000000000000000000000000000000000000000000000000000600052603160045260246000fd5b6001900381819060005260206000200160009055905550505050565b600660008373ffffffffffffffffffffffffffffffffffffffff1673ffffffffffffffffffffffffffffffffffffffff168152602001908152602001600020805490506007600083815260200190815260200160002081905550600660008373ffffffffffffffffffffffffffffffffffffffff1673ffffffffffffffffffffffffffffffffffffffff1681526020019081526020016000208190806001815401808255809150506001900390600052602060002001600090919091909150555050565b611da3828261201b565b611dad8282611cd5565b611db6816121cd565b5050565b611dc38161156e565b611e02576040517f08c379a0000000000000000000000000000000000000000000000000000000008152600401611df99061360d565b60405180910390fd5b611e9e60118054611e1290613a15565b80601f0160208091040260200160405190810160405280929190818152602001828054611e3e90613a15565b8015611e8b5780601f10611e6057610100808354040283529160200191611e8b565b820191906000526020600020905b815481529060010190602001808311611e6e57829003601f168201915b5050505050611e9983612216565b6123d2565b601260008381526020019081526020016000209080519060200190611ec4929190612973565b5050565b6000808273ffffffffffffffffffffffffffffffffffffffff163b119050919050565b600073ffffffffffffffffffffffffffffffffffffffff166003600083815260200190815260200160002060009054906101000a900473ffffffffffffffffffffffffffffffffffffffff1673ffffffffffffffffffffffffffffffffffffffff1614611fa65760006003600083815260200190815260200160002060006101000a81548173ffffffffffffffffffffffffffffffffffffffff021916908373ffffffffffffffffffffffffffffffffffffffff1602179055505b50565b60008160000154905060008111611ff5576040517f08c379a0000000000000000000000000000000000000000000000000000000008152600401611fec9061358d565b60405180910390fd5b6001810382600001819055505050565b6001816000016000828254019250508190555050565b6120248161156e565b15612064576040517f08c379a000000000000000000000000000000000000000000000000000000000815260040161205b9061360d565b60405180910390fd5b600073ffffffffffffffffffffffffffffffffffffffff168273ffffffffffffffffffffffffffffffffffffffff1614156120d4576040517f08c379a00000000000000000000000000000000000000000000000000000000081526004016120cb9061356d565b60405180910390fd5b816002600083815260200190815260200160002060006101000a81548173ffffffffffffffffffffffffffffffffffffffff021916908373ffffffffffffffffffffffffffffffffffffffff16021790555061216d600460008473ffffffffffffffffffffffffffffffffffffffff1673ffffffffffffffffffffffffffffffffffffffff168152602001908152602001600020612005565b808273ffffffffffffffffffffffffffffffffffffffff16600073ffffffffffffffffffffffffffffffffffffffff167fddf252ad1be2c89b69c2b068fc378daa952ba7f163c4a11628f55a4df523b3ef60405160405180910390a45050565b6008805490506009600083815260200190815260200160002081905550600881908060018154018082558091505060019003906000526020600020016000909190919091505550565b6060600082141561225e576040518060400160405280600181526020017f300000000000000000000000000000000000000000000000000000000000000081525090506123cd565b600082905060005b6000821461229057808061227990613a78565b915050600a8261228991906138c6565b9150612266565b60008167ffffffffffffffff8111156122d2577f4e487b7100000000000000000000000000000000000000000000000000000000600052604160045260246000fd5b6040519080825280601f01601f1916602001820160405280156123045781602001600182028036833780820191505090505b509050600060018361231691906138f7565b90505b600086146123c557600a8661232e9190613acb565b603061233a9190613870565b60f81b828280612349906139eb565b935081518110612382577f4e487b7100000000000000000000000000000000000000000000000000000000600052603260045260246000fd5b60200101907effffffffffffffffffffffffffffffffffffffffffffffffffffffffffffff1916908160001a905350600a866123be91906138c6565b9550612319565b819450505050505b919050565b606061240e8383604051806020016040528060008152506040518060200160405280600081525060405180602001604052806000815250612416565b905092915050565b6060600086905060008690506000869050600086905060008690506000815183518551875189516124479190613870565b6124519190613870565b61245b9190613870565b6124659190613870565b67ffffffffffffffff8111156124a4577f4e487b7100000000000000000000000000000000000000000000000000000000600052604160045260246000fd5b6040519080825280601f01601f1916602001820160405280156124d65781602001600182028036833780820191505090505b5090506000819050600080600090505b88518110156125ba57888181518110612528577f4e487b7100000000000000000000000000000000000000000000000000000000600052603260045260246000fd5b602001015160f81c60f81b83838061253f90613a78565b945081518110612578577f4e487b7100000000000000000000000000000000000000000000000000000000600052603260045260246000fd5b60200101907effffffffffffffffffffffffffffffffffffffffffffffffffffffffffffff1916908160001a90535080806125b290613a78565b9150506124e6565b600090505b875181101561269357878181518110612601577f4e487b7100000000000000000000000000000000000000000000000000000000600052603260045260246000fd5b602001015160f81c60f81b83838061261890613a78565b945081518110612651577f4e487b7100000000000000000000000000000000000000000000000000000000600052603260045260246000fd5b60200101907effffffffffffffffffffffffffffffffffffffffffffffffffffffffffffff1916908160001a905350808061268b90613a78565b9150506125bf565b600090505b865181101561276c578681815181106126da577f4e487b7100000000000000000000000000000000000000000000000000000000600052603260045260246000fd5b602001015160f81c60f81b8383806126f190613a78565b94508151811061272a577f4e487b7100000000000000000000000000000000000000000000000000000000600052603260045260246000fd5b60200101907effffffffffffffffffffffffffffffffffffffffffffffffffffffffffffff1916908160001a905350808061276490613a78565b915050612698565b600090505b8551811015612845578581815181106127b3577f4e487b7100000000000000000000000000000000000000000000000000000000600052603260045260246000fd5b602001015160f81c60f81b8383806127ca90613a78565b945081518110612803577f4e487b7100000000000000000000000000000000000000000000000000000000600052603260045260246000fd5b60200101907effffffffffffffffffffffffffffffffffffffffffffffffffffffffffffff1916908160001a905350808061283d90613a78565b915050612771565b600090505b845181101561291e5784818151811061288c577f4e487b7100000000000000000000000000000000000000000000000000000000600052603260045260246000fd5b602001015160f81c60f81b8383806128a390613a78565b9450815181106128dc577f4e487b7100000000000000000000000000000000000000000000000000000000600052603260045260246000fd5b60200101907effffffffffffffffffffffffffffffffffffffffffffffffffffffffffffff1916908160001a905350808061291690613a78565b91505061284a565b82995050505050505050505095945050505050565b8260028101928215612962579160200282015b82811115612961578251825591602001919060010190612946565b5b50905061296f91906129f9565b5090565b82805461297f90613a15565b90600052602060002090601f0160209004810192826129a157600085556129e8565b82601f106129ba57805160ff19168380011785556129e8565b828001600101855582156129e8579182015b828111156129e75782518255916020019190600101906129cc565b5b5090506129f591906129f9565b5090565b5b80821115612a125760008160009055506001016129fa565b5090565b6000612a29612a2484613778565b613753565b90508082856020860282011115612a3f57600080fd5b60005b85811015612a6f5781612a558882612ce7565b845260208401935060208301925050600181019050612a42565b5050509392505050565b6000612a8c612a878461379e565b613753565b905082815260208101848484011115612aa457600080fd5b612aaf8482856139a9565b509392505050565b6000612aca612ac5846137cf565b613753565b905082815260208101848484011115612ae257600080fd5b612aed8482856139a9565b509392505050565b600081359050612b0481613f5a565b92915050565b600082601f830112612b1b57600080fd5b6002612b28848285612a16565b91505092915050565b600081359050612b4081613f71565b92915050565b600081519050612b5581613f71565b92915050565b600081359050612b6a81613f88565b92915050565b600081359050612b7f81613f9f565b92915050565b600081519050612b9481613f9f565b92915050565b600082601f830112612bab57600080fd5b8135612bbb848260208601612a79565b91505092915050565b600082601f830112612bd557600080fd5b8135612be5848260208601612ab7565b91505092915050565b600060408284031215612c0057600080fd5b612c0a6040613753565b90506000612c1a84828501612ce7565b6000830152506020612c2e84828501612ce7565b60208301525092915050565b600060808284031215612c4c57600080fd5b612c566040613753565b90506000612c6684828501612b0a565b6000830152506040612c7a84828501612b0a565b60208301525092915050565b60006101008284031215612c9957600080fd5b612ca36060613753565b90506000612cb384828501612bee565b6000830152506040612cc784828501612c3a565b60208301525060c0612cdb84828501612bee565b60408301525092915050565b600081359050612cf681613fb6565b92915050565b600060208284031215612d0e57600080fd5b6000612d1c84828501612af5565b91505092915050565b60008060408385031215612d3857600080fd5b6000612d4685828601612af5565b9250506020612d5785828601612af5565b9150509250929050565b600080600060608486031215612d7657600080fd5b6000612d8486828701612af5565b9350506020612d9586828701612af5565b9250506040612da686828701612ce7565b9150509250925092565b60008060008060808587031215612dc657600080fd5b6000612dd487828801612af5565b9450506020612de587828801612af5565b9350506040612df687828801612ce7565b925050606085013567ffffffffffffffff811115612e1357600080fd5b612e1f87828801612b9a565b91505092959194509250565b60008060408385031215612e3e57600080fd5b6000612e4c85828601612af5565b9250506020612e5d85828601612b31565b9150509250929050565b60008060408385031215612e7a57600080fd5b6000612e8885828601612af5565b9250506020612e9985828601612ce7565b9150509250929050565b600060208284031215612eb557600080fd5b6000612ec384828501612b46565b91505092915050565b60008060408385031215612edf57600080fd5b6000612eed85828601612b5b565b925050602083013567ffffffffffffffff811115612f0a57600080fd5b612f1685828601612bc4565b9150509250929050565b600080600060608486031215612f3557600080fd5b6000612f4386828701612b5b565b935050602084013567ffffffffffffffff811115612f6057600080fd5b612f6c86828701612bc4565b925050604084013567ffffffffffffffff811115612f8957600080fd5b612f9586828701612b9a565b9150509250925092565b600060208284031215612fb157600080fd5b6000612fbf84828501612b70565b91505092915050565b600060208284031215612fda57600080fd5b6000612fe884828501612b85565b91505092915050565b600080600080610180858703121561300857600080fd5b600061301687828801612c86565b94505061010061302887828801612b0a565b93505061014061303a87828801612af5565b92505061016061304c87828801612ce7565b91505092959194509250565b60006020828403121561306a57600080fd5b600061307884828501612ce7565b91505092915050565b600061308d838361343f565b60208301905092915050565b6130a28161392b565b82525050565b6130b18161380a565b6130bb8184613838565b92506130c682613800565b8060005b838110156130f75781516130de8782613081565b96506130e98361382b565b9250506001810190506130ca565b505050505050565b6131088161380a565b6131128184613843565b925061311d82613800565b8060005b8381101561314e5781516131358782613081565b96506131408361382b565b925050600181019050613121565b505050505050565b61315f8161393d565b82525050565b600061317082613815565b61317a818561384e565b935061318a8185602086016139b8565b61319381613bb8565b840191505092915050565b60006131a982613820565b6131b3818561385f565b93506131c38185602086016139b8565b6131cc81613bb8565b840191505092915050565b60006131e4600f8361385f565b91506131ef82613bc9565b602082019050919050565b6000613207601b8361385f565b915061321282613bf2565b602082019050919050565b600061322a60228361385f565b915061323582613c1b565b604082019050919050565b600061324d60228361385f565b915061325882613c6a565b604082019050919050565b6000613270601d8361385f565b915061327b82613cb9565b602082019050919050565b600061329360148361385f565b915061329e82613ce2565b602082019050919050565b60006132b6603b8361385f565b91506132c182613d0b565b604082019050919050565b60006132d960338361385f565b91506132e482613d5a565b604082019050919050565b60006132fc60278361385f565b915061330782613da9565b604082019050919050565b600061331f60218361385f565b915061332a82613df8565b604082019050919050565b600061334260248361385f565b915061334d82613e47565b604082019050919050565b6000613365604d8361385f565b915061337082613e96565b606082019050919050565b600061338860218361385f565b915061339382613f0b565b604082019050919050565b6040820160008201516133b4600085018261343f565b5060208201516133c7602085018261343f565b50505050565b6080820160008201516133e360008501826130a8565b5060208201516133f660408501826130a8565b50505050565b61010082016000820151613413600085018261339e565b50602082015161342660408501826133cd565b50604082015161343960c085018261339e565b50505050565b6134488161399f565b82525050565b6134578161399f565b82525050565b61346e6134698261399f565b613ac1565b82525050565b6000613480828561345d565b602082019150613490828461345d565b6020820191508190509392505050565b60006020820190506134b56000830184613099565b92915050565b60006040820190506134d06000830185613099565b6134dd6020830184613099565b9392505050565b60006080820190506134f96000830187613099565b6135066020830186613099565b613513604083018561344e565b81810360608301526135258184613165565b905095945050505050565b60006020820190506135456000830184613156565b92915050565b60006020820190508181036000830152613565818461319e565b905092915050565b60006020820190508181036000830152613586816131d7565b9050919050565b600060208201905081810360008301526135a6816131fa565b9050919050565b600060208201905081810360008301526135c68161321d565b9050919050565b600060208201905081810360008301526135e681613240565b9050919050565b6000602082019050818103600083015261360681613263565b9050919050565b6000602082019050818103600083015261362681613286565b9050919050565b60006020820190508181036000830152613646816132a9565b9050919050565b60006020820190508181036000830152613666816132cc565b9050919050565b60006020820190508181036000830152613686816132ef565b9050919050565b600060208201905081810360008301526136a681613312565b9050919050565b600060208201905081810360008301526136c681613335565b9050919050565b600060208201905081810360008301526136e681613358565b9050919050565b600060208201905081810360008301526137068161337b565b9050919050565b60006101408201905061372360008301856133fc565b6137316101008301846130ff565b9392505050565b600060208201905061374d600083018461344e565b92915050565b600061375d61376e565b90506137698282613a47565b919050565b6000604051905090565b600067ffffffffffffffff82111561379357613792613b89565b5b602082029050919050565b600067ffffffffffffffff8211156137b9576137b8613b89565b5b6137c282613bb8565b9050602081019050919050565b600067ffffffffffffffff8211156137ea576137e9613b89565b5b6137f382613bb8565b9050602081019050919050565b6000819050919050565b600060029050919050565b600081519050919050565b600081519050919050565b6000602082019050919050565b600081905092915050565b600081905092915050565b600082825260208201905092915050565b600082825260208201905092915050565b600061387b8261399f565b91506138868361399f565b9250827fffffffffffffffffffffffffffffffffffffffffffffffffffffffffffffffff038211156138bb576138ba613afc565b5b828201905092915050565b60006138d18261399f565b91506138dc8361399f565b9250826138ec576138eb613b2b565b5b828204905092915050565b60006139028261399f565b915061390d8361399f565b9250828210156139205761391f613afc565b5b828203905092915050565b60006139368261397f565b9050919050565b60008115159050919050565b6000819050919050565b60007fffffffff0000000000000000000000000000000000000000000000000000000082169050919050565b600073ffffffffffffffffffffffffffffffffffffffff82169050919050565b6000819050919050565b82818337600083830152505050565b60005b838110156139d65780820151818401526020810190506139bb565b838111156139e5576000848401525b50505050565b60006139f68261399f565b91506000821415613a0a57613a09613afc565b5b600182039050919050565b60006002820490506001821680613a2d57607f821691505b60208210811415613a4157613a40613b5a565b5b50919050565b613a5082613bb8565b810181811067ffffffffffffffff82111715613a6f57613a6e613b89565b5b80604052505050565b6000613a838261399f565b91507fffffffffffffffffffffffffffffffffffffffffffffffffffffffffffffffff821415613ab657613ab5613afc565b5b600182019050919050565b6000819050919050565b6000613ad68261399f565b9150613ae18361399f565b925082613af157613af0613b2b565b5b828206905092915050565b7f4e487b7100000000000000000000000000000000000000000000000000000000600052601160045260246000fd5b7f4e487b7100000000000000000000000000000000000000000000000000000000600052601260045260246000fd5b7f4e487b7100000000000000000000000000000000000000000000000000000000600052602260045260246000fd5b7f4e487b7100000000000000000000000000000000000000000000000000000000600052604160045260246000fd5b6000601f19601f8301169050919050565b7f496e76616c696420616464726573730000000000000000000000000000000000600082015250565b7f436f756e7465723a2064656372656d656e74206f766572666c6f770000000000600082015250565b7f77726f6e6720746f6b656e206f776e657220616464726573732070726f76696460008201527f6564000000000000000000000000000000000000000000000000000000000000602082015250565b7f596f75206d75737420626520746865206f776e6572206f662074686520746f6b60008201527f656e000000000000000000000000000000000000000000000000000000000000602082015250565b7f756e61626c6520746f207665726966792074686520736f6c7574696f6e000000600082015250565b7f546f6b656e20646f6573206e6f74206578697374000000000000000000000000600082015250565b7f596f75206d75737420626520746865206f776e6572206f722074686520746f6b60008201527f656e206d75737420626520617070726f76656420666f7220616c6c0000000000602082015250565b7f6f6e6c7920746865206f776e6572206f662074686520636f6e7472616374206360008201527f616e2063616c6c2074686973206d6574686f6400000000000000000000000000602082015250565b7f546865206e6577206f776e6572206d757374206861766520612076616c69642060008201527f6164647265737300000000000000000000000000000000000000000000000000602082015250565b7f74686520746f6b656e2068617320616c7265616479206265656e206d696e746560008201527f6400000000000000000000000000000000000000000000000000000000000000602082015250565b7f6e6f20736f6c7574696f6e20616464656420666f7220676976656e20746f6b6560008201527f6e20494400000000000000000000000000000000000000000000000000000000602082015250565b7f5468697320736f6c7574696f6e2068617320616c7265616479206265656e207560008201527f7365642070726576696f75736c793b20596f75206e65656420746f206372656160208201527f74652061206e6577206f6e652e00000000000000000000000000000000000000604082015250565b7f596f752063616e6e6f7420617070726f766520796f7572206f776e20746f6b6560008201527f6e00000000000000000000000000000000000000000000000000000000000000602082015250565b613f638161392b565b8114613f6e57600080fd5b50565b613f7a8161393d565b8114613f8557600080fd5b50565b613f9181613949565b8114613f9c57600080fd5b50565b613fa881613953565b8114613fb357600080fd5b50565b613fbf8161399f565b8114613fca57600080fd5b5056fea2646970667358221220596c134bd0765bff72ce3fce7d811f3469c0e36e3e46e457f67a3b022201ee3764736f6c6343000801003368747470733a2f2f73332d75732d776573742d322e616d617a6f6e6177732e636f6d2f756461636974792d626c6f636b636861696e2f63617073746f6e652f",
  "immutableReferences": {},
  "source": "//pragma solidity >=0.4.21 <0.6.0;\r\n// SPDX-License-Identifier: MIT\r\npragma solidity >=0.4.21 <=0.8.1;\r\n// TODO define a contract call to the zokrates generated solidity contract <Verifier> or <renamedVerifier>\r\nimport \"./Verifier.sol\";\r\nimport \"./ERC721Mintable.sol\";\r\n\r\n\r\n\r\n\r\n// TODO define another contract named SolnSquareVerifier that inherits from your ERC721Mintable class\r\ncontract SolnSquareVerifier is EmpireHomesERC721Token{\r\n\r\n    Verifier private verifierContract;\r\n\r\n    constructor(address verifierAddress) {\r\n        verifierContract = Verifier(verifierAddress);\r\n    }\r\n    // TODO define a solutions struct that can hold an index & an address\r\n    struct Solution {\r\n        uint index;\r\n        uint256[2] input;\r\n        uint256 tokenID;\r\n        address owner;\r\n        bool isMinted;\r\n    }\r\n\r\n\r\n    // TODO define an array of the above struct\r\n    mapping(bytes32 => Solution) private solutions;\r\n\r\n    // TODO define a mapping to store unique solutions submitted\r\n    mapping(uint256 => bytes32) private uniqueSolutions;\r\n\r\n\r\n\r\n    // TODO Create an event to emit when a solution is added\r\n    event SolutionAdded(address indexed owner, uint256 indexed tokenID);\r\n\r\n\r\n\r\n    // TODO Create a function to add the solutions to the array and emit the event\r\n    function addSolution(Verifier.Proof memory proof, uint[2] memory input, address account, uint256 tokenID) public {\r\n        require(verifierContract.verifyTx(proof, input), \"unable to verify the solution\");\r\n\r\n        bytes32 solutionKey = keccak256(abi.encodePacked(input[0], input[1]));\r\n        require(solutions[solutionKey].tokenID == 0, \"This solution has already been used previously; You need to create a new one.\");\r\n\r\n        uniqueSolutions[tokenID] = solutionKey;\r\n        solutions[solutionKey].owner = account;\r\n        solutions[solutionKey].tokenID = tokenID;\r\n        solutions[solutionKey].input = input;\r\n\r\n        emit SolutionAdded(account, tokenID);\r\n    }\r\n\r\n\r\n\r\n    // TODO Create a function to mint new NFT only after the solution has been verified\r\n    //  - make sure the solution is unique (has not been used before)\r\n    //  - make sure you handle metadata as well as tokenSuplly\r\n    function mint(address to, uint256 tokenID) public override returns(bool) {\r\n    bytes32 solutionKey = uniqueSolutions[tokenID];\r\n    require(solutionKey != bytes32(0), \"no solution added for given token ID\");\r\n    require(!solutions[solutionKey].isMinted, \"the token has already been minted\");\r\n\r\n    address owner = solutions[uniqueSolutions[tokenID]].owner;\r\n    require(owner == to, \"wrong token owner address provided\");\r\n\r\n    solutions[solutionKey].isMinted = true;\r\n    return super.mint(to, tokenID);\r\n  }\r\n}\r\n\r\n\r\n\r\n  \r\n\r\n\r\n\r\n\r\n\r\n\r\n\r\n\r\n\r\n\r\n\r\n\r\n\r\n\r\n\r\n\r\n\r\n\r\n\r\n\r\n\r\n\r\n\r\n\r\n\r\n\r\n",
  "sourcePath": "C:\\Users\\A240208\\source\\repos\\Udacity Blockchain Projects\\Ethererum\\Blockchain-Capstone\\eth-contracts\\contracts\\SolnSquareVerifier.sol",
  "compiler": {
    "name": "solc",
    "version": "0.8.1+commit.df193b15.Emscripten.clang"
  },
  "schemaVersion": "3.4.7",
  "updatedAt": "2022-07-31T16:51:18.897Z",
  "networkType": "ethereum",
  "devdoc": {
    "kind": "dev",
    "methods": {
      "__callback(bytes32,string)": {
        "details": "The following `__callback` functions are just placeholders ideally      meant to be defined in child contract when proofs are used.      The function bodies simply silence compiler warnings."
      },
      "isApprovedForAll(address,address)": {
        "details": "Tells whether an operator is approved by a given owner",
        "params": {
          "operator": "operator address which you want to query the approval of",
          "owner": "owner address which you want to query the approval of"
        },
        "returns": {
          "_0": "bool whether the given operator is approved by the given owner"
        }
      },
      "setApprovalForAll(address,bool)": {
        "details": "Sets or unsets the approval of a given operator An operator is allowed to transfer all tokens of the sender on their behalf",
        "params": {
          "approved": "representing the status of the approval to be set",
          "to": "operator address to set the approval"
        }
      },
      "supportsInterface(bytes4)": {
        "details": "implement supportsInterface(bytes4) using a lookup table"
      },
      "tokenByIndex(uint256)": {
        "details": "Gets the token ID at a given index of all the tokens in this contract Reverts if the index is greater or equal to the total number of tokens",
        "params": {
          "index": "uint256 representing the index to be accessed of the tokens list"
        },
        "returns": {
          "_0": "uint256 token ID at the given index of the tokens list"
        }
      },
      "tokenOfOwnerByIndex(address,uint256)": {
        "details": "Gets the token ID at a given index of the tokens list of the requested owner",
        "params": {
          "index": "uint256 representing the index to be accessed of the requested tokens list",
          "owner": "address owning the tokens list to be accessed"
        },
        "returns": {
          "_0": "uint256 token ID at the given index of the tokens list owned by the requested address"
        }
      },
      "totalSupply()": {
        "details": "Gets the total amount of tokens stored by the contract",
        "returns": {
          "_0": "uint256 representing the total amount of tokens"
        }
      }
    },
    "version": 1
  },
  "userdoc": {
    "kind": "user",
    "methods": {},
    "version": 1
  }
}