{
  "contractName": "SolnSquareVerifier",
  "abi": [
    {
      "inputs": [
        {
          "internalType": "address",
          "name": "verifierAddress",
          "type": "address"
        }
      ],
      "stateMutability": "nonpayable",
      "type": "constructor"
    },
    {
      "anonymous": false,
      "inputs": [
        {
          "indexed": true,
          "internalType": "address",
          "name": "owner",
          "type": "address"
        },
        {
          "indexed": true,
          "internalType": "address",
          "name": "approved",
          "type": "address"
        },
        {
          "indexed": true,
          "internalType": "uint256",
          "name": "tokenId",
          "type": "uint256"
        }
      ],
      "name": "Approval",
      "type": "event"
    },
    {
      "anonymous": false,
      "inputs": [
        {
          "indexed": true,
          "internalType": "address",
          "name": "owner",
          "type": "address"
        },
        {
          "indexed": true,
          "internalType": "address",
          "name": "operator",
          "type": "address"
        },
        {
          "indexed": false,
          "internalType": "bool",
          "name": "approved",
          "type": "bool"
        }
      ],
      "name": "ApprovalForAll",
      "type": "event"
    },
    {
      "anonymous": false,
      "inputs": [
        {
          "indexed": false,
          "internalType": "address",
          "name": "oldOwner",
          "type": "address"
        },
        {
          "indexed": false,
          "internalType": "address",
          "name": "newOwner",
          "type": "address"
        }
      ],
      "name": "OwnershipTransferred",
      "type": "event"
    },
    {
      "anonymous": false,
      "inputs": [
        {
          "indexed": false,
          "internalType": "address",
          "name": "user",
          "type": "address"
        }
      ],
      "name": "Paused",
      "type": "event"
    },
    {
      "anonymous": false,
      "inputs": [
        {
          "indexed": true,
          "internalType": "address",
          "name": "owner",
          "type": "address"
        },
        {
          "indexed": true,
          "internalType": "uint256",
          "name": "tokenID",
          "type": "uint256"
        }
      ],
      "name": "SolutionAdded",
      "type": "event"
    },
    {
      "anonymous": false,
      "inputs": [
        {
          "indexed": true,
          "internalType": "address",
          "name": "from",
          "type": "address"
        },
        {
          "indexed": true,
          "internalType": "address",
          "name": "to",
          "type": "address"
        },
        {
          "indexed": true,
          "internalType": "uint256",
          "name": "tokenId",
          "type": "uint256"
        }
      ],
      "name": "Transfer",
      "type": "event"
    },
    {
      "anonymous": false,
      "inputs": [
        {
          "indexed": false,
          "internalType": "address",
          "name": "user",
          "type": "address"
        }
      ],
      "name": "Unpaused",
      "type": "event"
    },
    {
      "inputs": [
        {
          "internalType": "bytes32",
          "name": "_myid",
          "type": "bytes32"
        },
        {
          "internalType": "string",
          "name": "_result",
          "type": "string"
        }
      ],
      "name": "__callback",
      "outputs": [],
      "stateMutability": "nonpayable",
      "type": "function"
    },
    {
      "inputs": [
        {
          "internalType": "bytes32",
          "name": "_myid",
          "type": "bytes32"
        },
        {
          "internalType": "string",
          "name": "_result",
          "type": "string"
        },
        {
          "internalType": "bytes",
          "name": "_proof",
          "type": "bytes"
        }
      ],
      "name": "__callback",
      "outputs": [],
      "stateMutability": "nonpayable",
      "type": "function"
    },
    {
      "inputs": [
        {
          "internalType": "address",
          "name": "to",
          "type": "address"
        },
        {
          "internalType": "uint256",
          "name": "tokenId",
          "type": "uint256"
        }
      ],
      "name": "approve",
      "outputs": [],
      "stateMutability": "nonpayable",
      "type": "function"
    },
    {
      "inputs": [
        {
          "internalType": "address",
          "name": "owner",
          "type": "address"
        }
      ],
      "name": "balanceOf",
      "outputs": [
        {
          "internalType": "uint256",
          "name": "",
          "type": "uint256"
        }
      ],
      "stateMutability": "view",
      "type": "function"
    },
    {
      "inputs": [],
      "name": "baseTokenURI",
      "outputs": [
        {
          "internalType": "string",
          "name": "",
          "type": "string"
        }
      ],
      "stateMutability": "view",
      "type": "function"
    },
    {
      "inputs": [
        {
          "internalType": "uint256",
          "name": "tokenId",
          "type": "uint256"
        }
      ],
      "name": "getApproved",
      "outputs": [
        {
          "internalType": "address",
          "name": "",
          "type": "address"
        }
      ],
      "stateMutability": "view",
      "type": "function"
    },
    {
      "inputs": [
        {
          "internalType": "address",
          "name": "owner",
          "type": "address"
        },
        {
          "internalType": "address",
          "name": "operator",
          "type": "address"
        }
      ],
      "name": "isApprovedForAll",
      "outputs": [
        {
          "internalType": "bool",
          "name": "",
          "type": "bool"
        }
      ],
      "stateMutability": "view",
      "type": "function"
    },
    {
      "inputs": [],
      "name": "name",
      "outputs": [
        {
          "internalType": "string",
          "name": "",
          "type": "string"
        }
      ],
      "stateMutability": "view",
      "type": "function"
    },
    {
      "inputs": [],
      "name": "owner",
      "outputs": [
        {
          "internalType": "address",
          "name": "",
          "type": "address"
        }
      ],
      "stateMutability": "view",
      "type": "function"
    },
    {
      "inputs": [
        {
          "internalType": "uint256",
          "name": "tokenId",
          "type": "uint256"
        }
      ],
      "name": "ownerOf",
      "outputs": [
        {
          "internalType": "address",
          "name": "",
          "type": "address"
        }
      ],
      "stateMutability": "view",
      "type": "function"
    },
    {
      "inputs": [],
      "name": "pause",
      "outputs": [],
      "stateMutability": "nonpayable",
      "type": "function"
    },
    {
      "inputs": [
        {
          "internalType": "address",
          "name": "from",
          "type": "address"
        },
        {
          "internalType": "address",
          "name": "to",
          "type": "address"
        },
        {
          "internalType": "uint256",
          "name": "tokenId",
          "type": "uint256"
        }
      ],
      "name": "safeTransferFrom",
      "outputs": [],
      "stateMutability": "nonpayable",
      "type": "function"
    },
    {
      "inputs": [
        {
          "internalType": "address",
          "name": "from",
          "type": "address"
        },
        {
          "internalType": "address",
          "name": "to",
          "type": "address"
        },
        {
          "internalType": "uint256",
          "name": "tokenId",
          "type": "uint256"
        },
        {
          "internalType": "bytes",
          "name": "_data",
          "type": "bytes"
        }
      ],
      "name": "safeTransferFrom",
      "outputs": [],
      "stateMutability": "nonpayable",
      "type": "function"
    },
    {
      "inputs": [
        {
          "internalType": "address",
          "name": "to",
          "type": "address"
        },
        {
          "internalType": "bool",
          "name": "approved",
          "type": "bool"
        }
      ],
      "name": "setApprovalForAll",
      "outputs": [],
      "stateMutability": "nonpayable",
      "type": "function"
    },
    {
      "inputs": [
        {
          "internalType": "bytes4",
          "name": "interfaceId",
          "type": "bytes4"
        }
      ],
      "name": "supportsInterface",
      "outputs": [
        {
          "internalType": "bool",
          "name": "",
          "type": "bool"
        }
      ],
      "stateMutability": "view",
      "type": "function"
    },
    {
      "inputs": [],
      "name": "symbol",
      "outputs": [
        {
          "internalType": "string",
          "name": "",
          "type": "string"
        }
      ],
      "stateMutability": "view",
      "type": "function"
    },
    {
      "inputs": [
        {
          "internalType": "uint256",
          "name": "index",
          "type": "uint256"
        }
      ],
      "name": "tokenByIndex",
      "outputs": [
        {
          "internalType": "uint256",
          "name": "",
          "type": "uint256"
        }
      ],
      "stateMutability": "view",
      "type": "function"
    },
    {
      "inputs": [
        {
          "internalType": "address",
          "name": "owner",
          "type": "address"
        },
        {
          "internalType": "uint256",
          "name": "index",
          "type": "uint256"
        }
      ],
      "name": "tokenOfOwnerByIndex",
      "outputs": [
        {
          "internalType": "uint256",
          "name": "",
          "type": "uint256"
        }
      ],
      "stateMutability": "view",
      "type": "function"
    },
    {
      "inputs": [
        {
          "internalType": "uint256",
          "name": "tokenId",
          "type": "uint256"
        }
      ],
      "name": "tokenURI",
      "outputs": [
        {
          "internalType": "string",
          "name": "",
          "type": "string"
        }
      ],
      "stateMutability": "view",
      "type": "function"
    },
    {
      "inputs": [],
      "name": "totalSupply",
      "outputs": [
        {
          "internalType": "uint256",
          "name": "",
          "type": "uint256"
        }
      ],
      "stateMutability": "view",
      "type": "function"
    },
    {
      "inputs": [
        {
          "internalType": "address",
          "name": "from",
          "type": "address"
        },
        {
          "internalType": "address",
          "name": "to",
          "type": "address"
        },
        {
          "internalType": "uint256",
          "name": "tokenId",
          "type": "uint256"
        }
      ],
      "name": "transferFrom",
      "outputs": [],
      "stateMutability": "nonpayable",
      "type": "function"
    },
    {
      "inputs": [
        {
          "internalType": "address",
          "name": "newOwner",
          "type": "address"
        }
      ],
      "name": "transferOwnership",
      "outputs": [],
      "stateMutability": "nonpayable",
      "type": "function"
    },
    {
      "inputs": [
        {
          "components": [
            {
              "components": [
                {
                  "internalType": "uint256",
                  "name": "X",
                  "type": "uint256"
                },
                {
                  "internalType": "uint256",
                  "name": "Y",
                  "type": "uint256"
                }
              ],
              "internalType": "struct Pairing.G1Point",
              "name": "a",
              "type": "tuple"
            },
            {
              "components": [
                {
                  "internalType": "uint256[2]",
                  "name": "X",
                  "type": "uint256[2]"
                },
                {
                  "internalType": "uint256[2]",
                  "name": "Y",
                  "type": "uint256[2]"
                }
              ],
              "internalType": "struct Pairing.G2Point",
              "name": "b",
              "type": "tuple"
            },
            {
              "components": [
                {
                  "internalType": "uint256",
                  "name": "X",
                  "type": "uint256"
                },
                {
                  "internalType": "uint256",
                  "name": "Y",
                  "type": "uint256"
                }
              ],
              "internalType": "struct Pairing.G1Point",
              "name": "c",
              "type": "tuple"
            }
          ],
          "internalType": "struct Verifier.Proof",
          "name": "proof",
          "type": "tuple"
        },
        {
          "internalType": "uint256[2]",
          "name": "input",
          "type": "uint256[2]"
        },
        {
          "internalType": "address",
          "name": "account",
          "type": "address"
        },
        {
          "internalType": "uint256",
          "name": "tokenID",
          "type": "uint256"
        }
      ],
      "name": "addSolution",
      "outputs": [],
      "stateMutability": "nonpayable",
      "type": "function"
    },
    {
      "inputs": [
        {
          "internalType": "address",
          "name": "to",
          "type": "address"
        },
        {
          "internalType": "uint256",
          "name": "tokenID",
          "type": "uint256"
        }
      ],
      "name": "mint",
      "outputs": [
        {
          "internalType": "bool",
          "name": "",
          "type": "bool"
        }
      ],
      "stateMutability": "nonpayable",
      "type": "function"
    }
  ],
  "bytecode": "0x60806040523480156200001157600080fd5b50604051620047093803806200470983398181016040528101906200003791906200035e565b6040518060400160405280601281526020017f456d7069726520486f6d657320546f6b656e00000000000000000000000000008152506040518060400160405280600381526020017f45485400000000000000000000000000000000000000000000000000000000008152506040518060600160405280603f8152602001620046ca603f9139336000806101000a81548173ffffffffffffffffffffffffffffffffffffffff021916908373ffffffffffffffffffffffffffffffffffffffff1602179055507f8be0079c531659141344cd1fd0a4f28419497f9722a3daafe3b4186f6b6457e060008060009054906101000a900473ffffffffffffffffffffffffffffffffffffffff1660405162000152929190620003a1565b60405180910390a160008060146101000a81548160ff0219169083151502179055506200018c6301ffc9a760e01b6200025560201b60201c565b620001a46380ac58cd60e01b6200025560201b60201c565b620001bc63780e9d6360e01b6200025560201b60201c565b82600f9081620001cd919062000648565b508160109081620001df919062000648565b508060119081620001f1919062000648565b506200020a635b5e139f60e01b6200025560201b60201c565b50505080601360006101000a81548173ffffffffffffffffffffffffffffffffffffffff021916908373ffffffffffffffffffffffffffffffffffffffff160217905550506200072f565b63ffffffff60e01b817bffffffffffffffffffffffffffffffffffffffffffffffffffffffff1916036200028857600080fd5b6001806000837bffffffffffffffffffffffffffffffffffffffffffffffffffffffff19167bffffffffffffffffffffffffffffffffffffffffffffffffffffffff1916815260200190815260200160002060006101000a81548160ff02191690831515021790555050565b600080fd5b600073ffffffffffffffffffffffffffffffffffffffff82169050919050565b60006200032682620002f9565b9050919050565b620003388162000319565b81146200034457600080fd5b50565b60008151905062000358816200032d565b92915050565b600060208284031215620003775762000376620002f4565b5b6000620003878482850162000347565b91505092915050565b6200039b8162000319565b82525050565b6000604082019050620003b8600083018562000390565b620003c7602083018462000390565b9392505050565b600081519050919050565b7f4e487b7100000000000000000000000000000000000000000000000000000000600052604160045260246000fd5b7f4e487b7100000000000000000000000000000000000000000000000000000000600052602260045260246000fd5b600060028204905060018216806200045057607f821691505b60208210810362000466576200046562000408565b5b50919050565b60008190508160005260206000209050919050565b60006020601f8301049050919050565b600082821b905092915050565b600060088302620004d07fffffffffffffffffffffffffffffffffffffffffffffffffffffffffffffffff8262000491565b620004dc868362000491565b95508019841693508086168417925050509392505050565b6000819050919050565b6000819050919050565b600062000529620005236200051d84620004f4565b620004fe565b620004f4565b9050919050565b6000819050919050565b620005458362000508565b6200055d620005548262000530565b8484546200049e565b825550505050565b600090565b6200057462000565565b620005818184846200053a565b505050565b5b81811015620005a9576200059d6000826200056a565b60018101905062000587565b5050565b601f821115620005f857620005c2816200046c565b620005cd8462000481565b81016020851015620005dd578190505b620005f5620005ec8562000481565b83018262000586565b50505b505050565b600082821c905092915050565b60006200061d60001984600802620005fd565b1980831691505092915050565b60006200063883836200060a565b9150826002028217905092915050565b6200065382620003ce565b67ffffffffffffffff8111156200066f576200066e620003d9565b5b6200067b825462000437565b62000688828285620005ad565b600060209050601f831160018114620006c05760008415620006ab578287015190505b620006b785826200062a565b86555062000727565b601f198416620006d0866200046c565b60005b82811015620006fa57848901518255600182019150602085019450602081019050620006d3565b868310156200071a578489015162000716601f8916826200060a565b8355505b6001600288020188555050505b505050505050565b613f8b806200073f6000396000f3fe608060405234801561001057600080fd5b50600436106101585760003560e01c80634f6ccce7116100c3578063a22cb4651161007c578063a22cb465146103d7578063b88d4fde146103f3578063c87b56dd1461040f578063d547cfb71461043f578063e985e9c51461045d578063f2fde38b1461048d57610158565b80634f6ccce7146103015780636352211e1461033157806370a08231146103615780638456cb59146103915780638da5cb5b1461039b57806395d89b41146103b957610158565b806323b872dd1161011557806323b872dd1461023157806327dc297e1461024d5780632f745c591461026957806338bbfa501461029957806340c10f19146102b557806342842e0e146102e557610158565b806301ffc9a71461015d57806306fdde031461018d578063081812fc146101ab578063095ea7b3146101db5780630ad3ec32146101f757806318160ddd14610213575b600080fd5b610177600480360381019061017291906126b2565b6104a9565b60405161018491906126fa565b60405180910390f35b610195610511565b6040516101a291906127ae565b60405180910390f35b6101c560048036038101906101c09190612806565b6105a3565b6040516101d29190612874565b60405180910390f35b6101f560048036038101906101f091906128bb565b610628565b005b610211600480360381019061020c9190612b3b565b61083a565b005b61021b610ac6565b6040516102289190612bb5565b60405180910390f35b61024b60048036038101906102469190612bd0565b610ad3565b005b61026760048036038101906102629190612d0e565b610af6565b005b610283600480360381019061027e91906128bb565b610b52565b6040516102909190612bb5565b60405180910390f35b6102b360048036038101906102ae9190612e0b565b610bcc565b005b6102cf60048036038101906102ca91906128bb565b610bef565b6040516102dc91906126fa565b60405180910390f35b6102ff60048036038101906102fa9190612bd0565b610db0565b005b61031b60048036038101906103169190612806565b610dd0565b6040516103289190612bb5565b60405180910390f35b61034b60048036038101906103469190612806565b610e0b565b6040516103589190612874565b60405180910390f35b61037b60048036038101906103769190612e96565b610e48565b6040516103889190612bb5565b60405180910390f35b610399610e98565b005b6103a3610f2a565b6040516103b09190612874565b60405180910390f35b6103c1610f53565b6040516103ce91906127ae565b60405180910390f35b6103f160048036038101906103ec9190612eef565b610fe5565b005b61040d60048036038101906104089190612f2f565b61111a565b005b61042960048036038101906104249190612806565b611140565b60405161043691906127ae565b60405180910390f35b6104476111f7565b60405161045491906127ae565b60405180910390f35b61047760048036038101906104729190612fb2565b611289565b60405161048491906126fa565b60405180910390f35b6104a760048036038101906104a29190612e96565b61131d565b005b600060016000837bffffffffffffffffffffffffffffffffffffffffffffffffffffffff19167bffffffffffffffffffffffffffffffffffffffffffffffffffffffff1916815260200190815260200160002060009054906101000a900460ff169050919050565b6060600f805461052090613021565b80601f016020809104026020016040519081016040528092919081815260200182805461054c90613021565b80156105995780601f1061056e57610100808354040283529160200191610599565b820191906000526020600020905b81548152906001019060200180831161057c57829003601f168201915b5050505050905090565b60006105ae8261149d565b6105ed576040517f08c379a00000000000000000000000000000000000000000000000000000000081526004016105e49061309e565b60405180910390fd5b6003600083815260200190815260200160002060009054906101000a900473ffffffffffffffffffffffffffffffffffffffff169050919050565b6002600082815260200190815260200160002060009054906101000a900473ffffffffffffffffffffffffffffffffffffffff1673ffffffffffffffffffffffffffffffffffffffff168273ffffffffffffffffffffffffffffffffffffffff16036106c9576040517f08c379a00000000000000000000000000000000000000000000000000000000081526004016106c090613130565b60405180910390fd5b6002600082815260200190815260200160002060009054906101000a900473ffffffffffffffffffffffffffffffffffffffff1673ffffffffffffffffffffffffffffffffffffffff163373ffffffffffffffffffffffffffffffffffffffff161480610743575061074261073c610f2a565b33611289565b5b610782576040517f08c379a0000000000000000000000000000000000000000000000000000000008152600401610779906131c2565b60405180910390fd5b816003600083815260200190815260200160002060006101000a81548173ffffffffffffffffffffffffffffffffffffffff021916908373ffffffffffffffffffffffffffffffffffffffff160217905550808273ffffffffffffffffffffffffffffffffffffffff166107f4610f2a565b73ffffffffffffffffffffffffffffffffffffffff167f8c5be1e5ebec7d5bd14f71427d1e84f3dd0314c0f7b2291e5b200ac8c7c3b92560405160405180910390a45050565b601360009054906101000a900473ffffffffffffffffffffffffffffffffffffffff1673ffffffffffffffffffffffffffffffffffffffff166343cd76fc85856040518363ffffffff1660e01b8152600401610897929190613390565b602060405180830381865afa1580156108b4573d6000803e3d6000fd5b505050506040513d601f19601f820116820180604052508101906108d891906133d0565b610917576040517f08c379a000000000000000000000000000000000000000000000000000000000815260040161090e90613449565b60405180910390fd5b60008360006002811061092d5761092c613469565b5b60200201518460016002811061094657610945613469565b5b602002015160405160200161095c9291906134b9565b60405160208183030381529060405280519060200120905060006014600083815260200190815260200160002060030154146109cd576040517f08c379a00000000000000000000000000000000000000000000000000000000081526004016109c49061357d565b60405180910390fd5b806015600084815260200190815260200160002081905550826014600083815260200190815260200160002060040160006101000a81548173ffffffffffffffffffffffffffffffffffffffff021916908373ffffffffffffffffffffffffffffffffffffffff1602179055508160146000838152602001908152602001600020600301819055508360146000838152602001908152602001600020600101906002610a7a9291906125e9565b50818373ffffffffffffffffffffffffffffffffffffffff167f3a01cc868bdb36c1d9b8a262a8ad25064b23ac175b3f8e4453f1daf8ff6bac0d60405160405180910390a35050505050565b6000600880549050905090565b610add338261150f565b610ae657600080fd5b610af18383836115a4565b505050565b610b4e8282600067ffffffffffffffff811115610b1657610b15612900565b5b6040519080825280601f01601f191660200182016040528015610b485781602001600182028036833780820191505090505b50610bcc565b5050565b6000610b5d83610e48565b8210610b6857600080fd5b600660008473ffffffffffffffffffffffffffffffffffffffff1673ffffffffffffffffffffffffffffffffffffffff1681526020019081526020016000208281548110610bb957610bb8613469565b5b9060005260206000200154905092915050565b6000801b600d60008060001b815260200190815260200160002081905550505050565b600080601560008481526020019081526020016000205490506000801b8103610c4d576040517f08c379a0000000000000000000000000000000000000000000000000000000008152600401610c449061360f565b60405180910390fd5b6014600082815260200190815260200160002060040160149054906101000a900460ff1615610cb1576040517f08c379a0000000000000000000000000000000000000000000000000000000008152600401610ca8906136a1565b60405180910390fd5b6000601460006015600087815260200190815260200160002054815260200190815260200160002060040160009054906101000a900473ffffffffffffffffffffffffffffffffffffffff1690508473ffffffffffffffffffffffffffffffffffffffff168173ffffffffffffffffffffffffffffffffffffffff1614610d6d576040517f08c379a0000000000000000000000000000000000000000000000000000000008152600401610d6490613733565b60405180910390fd5b60016014600084815260200190815260200160002060040160146101000a81548160ff021916908315150217905550610da685856115c8565b9250505092915050565b610dcb8383836040518060200160405280600081525061111a565b505050565b6000610dda610ac6565b8210610de557600080fd5b60088281548110610df957610df8613469565b5b90600052602060002001549050919050565b60006002600083815260200190815260200160002060009054906101000a900473ffffffffffffffffffffffffffffffffffffffff169050919050565b6000610e91600460008473ffffffffffffffffffffffffffffffffffffffff1673ffffffffffffffffffffffffffffffffffffffff16815260200190815260200160002061165c565b9050919050565b610ea0610f2a565b73ffffffffffffffffffffffffffffffffffffffff163373ffffffffffffffffffffffffffffffffffffffff1614610f0d576040517f08c379a0000000000000000000000000000000000000000000000000000000008152600401610f04906137c5565b60405180910390fd5b6001600060146101000a81548160ff021916908315150217905550565b60008060009054906101000a900473ffffffffffffffffffffffffffffffffffffffff16905090565b606060108054610f6290613021565b80601f0160208091040260200160405190810160405280929190818152602001828054610f8e90613021565b8015610fdb5780601f10610fb057610100808354040283529160200191610fdb565b820191906000526020600020905b815481529060010190602001808311610fbe57829003601f168201915b5050505050905090565b3373ffffffffffffffffffffffffffffffffffffffff168273ffffffffffffffffffffffffffffffffffffffff160361101d57600080fd5b80600560003373ffffffffffffffffffffffffffffffffffffffff1673ffffffffffffffffffffffffffffffffffffffff16815260200190815260200160002060008473ffffffffffffffffffffffffffffffffffffffff1673ffffffffffffffffffffffffffffffffffffffff16815260200190815260200160002060006101000a81548160ff0219169083151502179055508173ffffffffffffffffffffffffffffffffffffffff163373ffffffffffffffffffffffffffffffffffffffff167f17307eab39ab6107e8899845ad3d59bd9653f200f220920489ca2b5937696c318360405161110e91906126fa565b60405180910390a35050565b611125848484610ad3565b6111318484848461166a565b61113a57600080fd5b50505050565b606061114b8261149d565b61115457600080fd5b60126000838152602001908152602001600020805461117290613021565b80601f016020809104026020016040519081016040528092919081815260200182805461119e90613021565b80156111eb5780601f106111c0576101008083540402835291602001916111eb565b820191906000526020600020905b8154815290600101906020018083116111ce57829003601f168201915b50505050509050919050565b60606011805461120690613021565b80601f016020809104026020016040519081016040528092919081815260200182805461123290613021565b801561127f5780601f106112545761010080835404028352916020019161127f565b820191906000526020600020905b81548152906001019060200180831161126257829003601f168201915b5050505050905090565b6000600560008473ffffffffffffffffffffffffffffffffffffffff1673ffffffffffffffffffffffffffffffffffffffff16815260200190815260200160002060008373ffffffffffffffffffffffffffffffffffffffff1673ffffffffffffffffffffffffffffffffffffffff16815260200190815260200160002060009054906101000a900460ff16905092915050565b611325610f2a565b73ffffffffffffffffffffffffffffffffffffffff163373ffffffffffffffffffffffffffffffffffffffff1614611392576040517f08c379a0000000000000000000000000000000000000000000000000000000008152600401611389906137c5565b60405180910390fd5b600073ffffffffffffffffffffffffffffffffffffffff168173ffffffffffffffffffffffffffffffffffffffff1603611401576040517f08c379a00000000000000000000000000000000000000000000000000000000081526004016113f890613857565b60405180910390fd5b7f8be0079c531659141344cd1fd0a4f28419497f9722a3daafe3b4186f6b6457e060008054906101000a900473ffffffffffffffffffffffffffffffffffffffff1682604051611452929190613877565b60405180910390a1806000806101000a81548173ffffffffffffffffffffffffffffffffffffffff021916908373ffffffffffffffffffffffffffffffffffffffff16021790555050565b6000806002600084815260200190815260200160002060009054906101000a900473ffffffffffffffffffffffffffffffffffffffff169050600073ffffffffffffffffffffffffffffffffffffffff168173ffffffffffffffffffffffffffffffffffffffff161415915050919050565b60008061151b83610e0b565b90508073ffffffffffffffffffffffffffffffffffffffff168473ffffffffffffffffffffffffffffffffffffffff16148061158a57508373ffffffffffffffffffffffffffffffffffffffff16611572846105a3565b73ffffffffffffffffffffffffffffffffffffffff16145b8061159b575061159a8185611289565b5b91505092915050565b6115af838383611772565b6115b983826119cb565b6115c38282611b82565b505050565b60006115d2610f2a565b73ffffffffffffffffffffffffffffffffffffffff163373ffffffffffffffffffffffffffffffffffffffff161461163f576040517f08c379a0000000000000000000000000000000000000000000000000000000008152600401611636906137c5565b60405180910390fd5b6116498383611c46565b61165282611c67565b6001905092915050565b600081600001549050919050565b600061168b8473ffffffffffffffffffffffffffffffffffffffff16611d6e565b611698576001905061176a565b60008473ffffffffffffffffffffffffffffffffffffffff1663150b7a02338887876040518563ffffffff1660e01b81526004016116d994939291906138f5565b6020604051808303816000875af11580156116f8573d6000803e3d6000fd5b505050506040513d601f19601f8201168201806040525081019061171c9190613956565b905063150b7a0260e01b7bffffffffffffffffffffffffffffffffffffffffffffffffffffffff1916817bffffffffffffffffffffffffffffffffffffffffffffffffffffffff1916149150505b949350505050565b8273ffffffffffffffffffffffffffffffffffffffff166002600083815260200190815260200160002060009054906101000a900473ffffffffffffffffffffffffffffffffffffffff1673ffffffffffffffffffffffffffffffffffffffff1614611813576040517f08c379a000000000000000000000000000000000000000000000000000000000815260040161180a906139f5565b60405180910390fd5b600073ffffffffffffffffffffffffffffffffffffffff168273ffffffffffffffffffffffffffffffffffffffff1603611882576040517f08c379a000000000000000000000000000000000000000000000000000000000815260040161187990613a61565b60405180910390fd5b61188b81611d91565b6118d2600460008573ffffffffffffffffffffffffffffffffffffffff1673ffffffffffffffffffffffffffffffffffffffff168152602001908152602001600020611e4f565b611919600460008473ffffffffffffffffffffffffffffffffffffffff1673ffffffffffffffffffffffffffffffffffffffff168152602001908152602001600020611eab565b816002600083815260200190815260200160002060006101000a81548173ffffffffffffffffffffffffffffffffffffffff021916908373ffffffffffffffffffffffffffffffffffffffff160217905550808273ffffffffffffffffffffffffffffffffffffffff168473ffffffffffffffffffffffffffffffffffffffff167fddf252ad1be2c89b69c2b068fc378daa952ba7f163c4a11628f55a4df523b3ef60405160405180910390a4505050565b60006001600660008573ffffffffffffffffffffffffffffffffffffffff1673ffffffffffffffffffffffffffffffffffffffff16815260200190815260200160002080549050611a1c9190613ab0565b9050600060076000848152602001908152602001600020549050818114611b17576000600660008673ffffffffffffffffffffffffffffffffffffffff1673ffffffffffffffffffffffffffffffffffffffff1681526020019081526020016000208381548110611a9057611a8f613469565b5b9060005260206000200154905080600660008773ffffffffffffffffffffffffffffffffffffffff1673ffffffffffffffffffffffffffffffffffffffff1681526020019081526020016000208381548110611aef57611aee613469565b5b9060005260206000200181905550816007600083815260200190815260200160002081905550505b600660008573ffffffffffffffffffffffffffffffffffffffff1673ffffffffffffffffffffffffffffffffffffffff168152602001908152602001600020805480611b6657611b65613ae4565b5b6001900381819060005260206000200160009055905550505050565b600660008373ffffffffffffffffffffffffffffffffffffffff1673ffffffffffffffffffffffffffffffffffffffff168152602001908152602001600020805490506007600083815260200190815260200160002081905550600660008373ffffffffffffffffffffffffffffffffffffffff1673ffffffffffffffffffffffffffffffffffffffff1681526020019081526020016000208190806001815401808255809150506001900390600052602060002001600090919091909150555050565b611c508282611ec1565b611c5a8282611b82565b611c6381612072565b5050565b611c708161149d565b611caf576040517f08c379a0000000000000000000000000000000000000000000000000000000008152600401611ca69061309e565b60405180910390fd5b611d4b60118054611cbf90613021565b80601f0160208091040260200160405190810160405280929190818152602001828054611ceb90613021565b8015611d385780601f10611d0d57610100808354040283529160200191611d38565b820191906000526020600020905b815481529060010190602001808311611d1b57829003601f168201915b5050505050611d46836120bb565b61222a565b601260008381526020019081526020016000209081611d6a9190613cbf565b5050565b6000808273ffffffffffffffffffffffffffffffffffffffff163b119050919050565b600073ffffffffffffffffffffffffffffffffffffffff166003600083815260200190815260200160002060009054906101000a900473ffffffffffffffffffffffffffffffffffffffff1673ffffffffffffffffffffffffffffffffffffffff1614611e4c5760006003600083815260200190815260200160002060006101000a81548173ffffffffffffffffffffffffffffffffffffffff021916908373ffffffffffffffffffffffffffffffffffffffff1602179055505b50565b60008160000154905060008111611e9b576040517f08c379a0000000000000000000000000000000000000000000000000000000008152600401611e9290613ddd565b60405180910390fd5b6001810382600001819055505050565b6001816000016000828254019250508190555050565b611eca8161149d565b15611f0a576040517f08c379a0000000000000000000000000000000000000000000000000000000008152600401611f019061309e565b60405180910390fd5b600073ffffffffffffffffffffffffffffffffffffffff168273ffffffffffffffffffffffffffffffffffffffff1603611f79576040517f08c379a0000000000000000000000000000000000000000000000000000000008152600401611f7090613a61565b60405180910390fd5b816002600083815260200190815260200160002060006101000a81548173ffffffffffffffffffffffffffffffffffffffff021916908373ffffffffffffffffffffffffffffffffffffffff160217905550612012600460008473ffffffffffffffffffffffffffffffffffffffff1673ffffffffffffffffffffffffffffffffffffffff168152602001908152602001600020611eab565b808273ffffffffffffffffffffffffffffffffffffffff16600073ffffffffffffffffffffffffffffffffffffffff167fddf252ad1be2c89b69c2b068fc378daa952ba7f163c4a11628f55a4df523b3ef60405160405180910390a45050565b6008805490506009600083815260200190815260200160002081905550600881908060018154018082558091505060019003906000526020600020016000909190919091505550565b606060008203612102576040518060400160405280600181526020017f30000000000000000000000000000000000000000000000000000000000000008152509050612225565b600082905060005b6000821461213457808061211d90613dfd565b915050600a8261212d9190613e74565b915061210a565b60008167ffffffffffffffff8111156121505761214f612900565b5b6040519080825280601f01601f1916602001820160405280156121825781602001600182028036833780820191505090505b50905060006001836121949190613ab0565b90505b6000861461221d57600a866121ac9190613ea5565b60306121b89190613ed6565b60f81b8282806121c790613f2c565b9350815181106121da576121d9613469565b5b60200101907effffffffffffffffffffffffffffffffffffffffffffffffffffffffffffff1916908160001a905350600a866122169190613e74565b9550612197565b819450505050505b919050565b6060612266838360405180602001604052806000815250604051806020016040528060008152506040518060200160405280600081525061226e565b905092915050565b60606000869050600086905060008690506000869050600086905060008151835185518751895161229f9190613ed6565b6122a99190613ed6565b6122b39190613ed6565b6122bd9190613ed6565b67ffffffffffffffff8111156122d6576122d5612900565b5b6040519080825280601f01601f1916602001820160405280156123085781602001600182028036833780820191505090505b5090506000819050600080600090505b88518110156123a05788818151811061233457612333613469565b5b602001015160f81c60f81b83838061234b90613dfd565b94508151811061235e5761235d613469565b5b60200101907effffffffffffffffffffffffffffffffffffffffffffffffffffffffffffff1916908160001a905350808061239890613dfd565b915050612318565b600090505b875181101561242d578781815181106123c1576123c0613469565b5b602001015160f81c60f81b8383806123d890613dfd565b9450815181106123eb576123ea613469565b5b60200101907effffffffffffffffffffffffffffffffffffffffffffffffffffffffffffff1916908160001a905350808061242590613dfd565b9150506123a5565b600090505b86518110156124ba5786818151811061244e5761244d613469565b5b602001015160f81c60f81b83838061246590613dfd565b94508151811061247857612477613469565b5b60200101907effffffffffffffffffffffffffffffffffffffffffffffffffffffffffffff1916908160001a90535080806124b290613dfd565b915050612432565b600090505b8551811015612547578581815181106124db576124da613469565b5b602001015160f81c60f81b8383806124f290613dfd565b94508151811061250557612504613469565b5b60200101907effffffffffffffffffffffffffffffffffffffffffffffffffffffffffffff1916908160001a905350808061253f90613dfd565b9150506124bf565b600090505b84518110156125d45784818151811061256857612567613469565b5b602001015160f81c60f81b83838061257f90613dfd565b94508151811061259257612591613469565b5b60200101907effffffffffffffffffffffffffffffffffffffffffffffffffffffffffffff1916908160001a90535080806125cc90613dfd565b91505061254c565b82995050505050505050505095945050505050565b8260028101928215612618579160200282015b828111156126175782518255916020019190600101906125fc565b5b5090506126259190612629565b5090565b5b8082111561264257600081600090555060010161262a565b5090565b6000604051905090565b600080fd5b600080fd5b60007fffffffff0000000000000000000000000000000000000000000000000000000082169050919050565b61268f8161265a565b811461269a57600080fd5b50565b6000813590506126ac81612686565b92915050565b6000602082840312156126c8576126c7612650565b5b60006126d68482850161269d565b91505092915050565b60008115159050919050565b6126f4816126df565b82525050565b600060208201905061270f60008301846126eb565b92915050565b600081519050919050565b600082825260208201905092915050565b60005b8381101561274f578082015181840152602081019050612734565b8381111561275e576000848401525b50505050565b6000601f19601f8301169050919050565b600061278082612715565b61278a8185612720565b935061279a818560208601612731565b6127a381612764565b840191505092915050565b600060208201905081810360008301526127c88184612775565b905092915050565b6000819050919050565b6127e3816127d0565b81146127ee57600080fd5b50565b600081359050612800816127da565b92915050565b60006020828403121561281c5761281b612650565b5b600061282a848285016127f1565b91505092915050565b600073ffffffffffffffffffffffffffffffffffffffff82169050919050565b600061285e82612833565b9050919050565b61286e81612853565b82525050565b60006020820190506128896000830184612865565b92915050565b61289881612853565b81146128a357600080fd5b50565b6000813590506128b58161288f565b92915050565b600080604083850312156128d2576128d1612650565b5b60006128e0858286016128a6565b92505060206128f1858286016127f1565b9150509250929050565b600080fd5b7f4e487b7100000000000000000000000000000000000000000000000000000000600052604160045260246000fd5b61293882612764565b810181811067ffffffffffffffff8211171561295757612956612900565b5b80604052505050565b600061296a612646565b9050612976828261292f565b919050565b600060408284031215612991576129906128fb565b5b61299b6040612960565b905060006129ab848285016127f1565b60008301525060206129bf848285016127f1565b60208301525092915050565b600080fd5b600067ffffffffffffffff8211156129eb576129ea612900565b5b602082029050919050565b600080fd5b6000612a0e612a09846129d0565b612960565b90508060208402830185811115612a2857612a276129f6565b5b835b81811015612a515780612a3d88826127f1565b845260208401935050602081019050612a2a565b5050509392505050565b600082601f830112612a7057612a6f6129cb565b5b6002612a7d8482856129fb565b91505092915050565b600060808284031215612a9c57612a9b6128fb565b5b612aa66040612960565b90506000612ab684828501612a5b565b6000830152506040612aca84828501612a5b565b60208301525092915050565b60006101008284031215612aed57612aec6128fb565b5b612af76060612960565b90506000612b078482850161297b565b6000830152506040612b1b84828501612a86565b60208301525060c0612b2f8482850161297b565b60408301525092915050565b6000806000806101808587031215612b5657612b55612650565b5b6000612b6487828801612ad6565b945050610100612b7687828801612a5b565b935050610140612b88878288016128a6565b925050610160612b9a878288016127f1565b91505092959194509250565b612baf816127d0565b82525050565b6000602082019050612bca6000830184612ba6565b92915050565b600080600060608486031215612be957612be8612650565b5b6000612bf7868287016128a6565b9350506020612c08868287016128a6565b9250506040612c19868287016127f1565b9150509250925092565b6000819050919050565b612c3681612c23565b8114612c4157600080fd5b50565b600081359050612c5381612c2d565b92915050565b600080fd5b600067ffffffffffffffff821115612c7957612c78612900565b5b612c8282612764565b9050602081019050919050565b82818337600083830152505050565b6000612cb1612cac84612c5e565b612960565b905082815260208101848484011115612ccd57612ccc612c59565b5b612cd8848285612c8f565b509392505050565b600082601f830112612cf557612cf46129cb565b5b8135612d05848260208601612c9e565b91505092915050565b60008060408385031215612d2557612d24612650565b5b6000612d3385828601612c44565b925050602083013567ffffffffffffffff811115612d5457612d53612655565b5b612d6085828601612ce0565b9150509250929050565b600067ffffffffffffffff821115612d8557612d84612900565b5b612d8e82612764565b9050602081019050919050565b6000612dae612da984612d6a565b612960565b905082815260208101848484011115612dca57612dc9612c59565b5b612dd5848285612c8f565b509392505050565b600082601f830112612df257612df16129cb565b5b8135612e02848260208601612d9b565b91505092915050565b600080600060608486031215612e2457612e23612650565b5b6000612e3286828701612c44565b935050602084013567ffffffffffffffff811115612e5357612e52612655565b5b612e5f86828701612ce0565b925050604084013567ffffffffffffffff811115612e8057612e7f612655565b5b612e8c86828701612ddd565b9150509250925092565b600060208284031215612eac57612eab612650565b5b6000612eba848285016128a6565b91505092915050565b612ecc816126df565b8114612ed757600080fd5b50565b600081359050612ee981612ec3565b92915050565b60008060408385031215612f0657612f05612650565b5b6000612f14858286016128a6565b9250506020612f2585828601612eda565b9150509250929050565b60008060008060808587031215612f4957612f48612650565b5b6000612f57878288016128a6565b9450506020612f68878288016128a6565b9350506040612f79878288016127f1565b925050606085013567ffffffffffffffff811115612f9a57612f99612655565b5b612fa687828801612ddd565b91505092959194509250565b60008060408385031215612fc957612fc8612650565b5b6000612fd7858286016128a6565b9250506020612fe8858286016128a6565b9150509250929050565b7f4e487b7100000000000000000000000000000000000000000000000000000000600052602260045260246000fd5b6000600282049050600182168061303957607f821691505b60208210810361304c5761304b612ff2565b5b50919050565b7f546f6b656e20646f6573206e6f74206578697374000000000000000000000000600082015250565b6000613088601483612720565b915061309382613052565b602082019050919050565b600060208201905081810360008301526130b78161307b565b9050919050565b7f596f752063616e6e6f7420617070726f766520796f7572206f776e20746f6b6560008201527f6e00000000000000000000000000000000000000000000000000000000000000602082015250565b600061311a602183612720565b9150613125826130be565b604082019050919050565b600060208201905081810360008301526131498161310d565b9050919050565b7f596f75206d75737420626520746865206f776e6572206f722074686520746f6b60008201527f656e206d75737420626520617070726f76656420666f7220616c6c0000000000602082015250565b60006131ac603b83612720565b91506131b782613150565b604082019050919050565b600060208201905081810360008301526131db8161319f565b9050919050565b6131eb816127d0565b82525050565b60408201600082015161320760008501826131e2565b50602082015161321a60208501826131e2565b50505050565b600060029050919050565b600081905092915050565b6000819050919050565b600061324c83836131e2565b60208301905092915050565b6000602082019050919050565b61326e81613220565b613278818461322b565b925061328382613236565b8060005b838110156132b457815161329b8782613240565b96506132a683613258565b925050600181019050613287565b505050505050565b6080820160008201516132d26000850182613265565b5060208201516132e56040850182613265565b50505050565b6101008201600082015161330260008501826131f1565b50602082015161331560408501826132bc565b50604082015161332860c08501826131f1565b50505050565b600081905092915050565b61334281613220565b61334c818461332e565b925061335782613236565b8060005b8381101561338857815161336f8782613240565b965061337a83613258565b92505060018101905061335b565b505050505050565b6000610140820190506133a660008301856132eb565b6133b4610100830184613339565b9392505050565b6000815190506133ca81612ec3565b92915050565b6000602082840312156133e6576133e5612650565b5b60006133f4848285016133bb565b91505092915050565b7f756e61626c6520746f207665726966792074686520736f6c7574696f6e000000600082015250565b6000613433601d83612720565b915061343e826133fd565b602082019050919050565b6000602082019050818103600083015261346281613426565b9050919050565b7f4e487b7100000000000000000000000000000000000000000000000000000000600052603260045260246000fd5b6000819050919050565b6134b36134ae826127d0565b613498565b82525050565b60006134c582856134a2565b6020820191506134d582846134a2565b6020820191508190509392505050565b7f5468697320736f6c7574696f6e2068617320616c7265616479206265656e207560008201527f7365642070726576696f75736c793b20596f75206e65656420746f206372656160208201527f74652061206e6577206f6e652e00000000000000000000000000000000000000604082015250565b6000613567604d83612720565b9150613572826134e5565b606082019050919050565b600060208201905081810360008301526135968161355a565b9050919050565b7f6e6f20736f6c7574696f6e20616464656420666f7220676976656e20746f6b6560008201527f6e20494400000000000000000000000000000000000000000000000000000000602082015250565b60006135f9602483612720565b91506136048261359d565b604082019050919050565b60006020820190508181036000830152613628816135ec565b9050919050565b7f74686520746f6b656e2068617320616c7265616479206265656e206d696e746560008201527f6400000000000000000000000000000000000000000000000000000000000000602082015250565b600061368b602183612720565b91506136968261362f565b604082019050919050565b600060208201905081810360008301526136ba8161367e565b9050919050565b7f77726f6e6720746f6b656e206f776e657220616464726573732070726f76696460008201527f6564000000000000000000000000000000000000000000000000000000000000602082015250565b600061371d602283612720565b9150613728826136c1565b604082019050919050565b6000602082019050818103600083015261374c81613710565b9050919050565b7f6f6e6c7920746865206f776e6572206f662074686520636f6e7472616374206360008201527f616e2063616c6c2074686973206d6574686f6400000000000000000000000000602082015250565b60006137af603383612720565b91506137ba82613753565b604082019050919050565b600060208201905081810360008301526137de816137a2565b9050919050565b7f546865206e6577206f776e6572206d757374206861766520612076616c69642060008201527f6164647265737300000000000000000000000000000000000000000000000000602082015250565b6000613841602783612720565b915061384c826137e5565b604082019050919050565b6000602082019050818103600083015261387081613834565b9050919050565b600060408201905061388c6000830185612865565b6138996020830184612865565b9392505050565b600081519050919050565b600082825260208201905092915050565b60006138c7826138a0565b6138d181856138ab565b93506138e1818560208601612731565b6138ea81612764565b840191505092915050565b600060808201905061390a6000830187612865565b6139176020830186612865565b6139246040830185612ba6565b818103606083015261393681846138bc565b905095945050505050565b60008151905061395081612686565b92915050565b60006020828403121561396c5761396b612650565b5b600061397a84828501613941565b91505092915050565b7f596f75206d75737420626520746865206f776e6572206f662074686520746f6b60008201527f656e000000000000000000000000000000000000000000000000000000000000602082015250565b60006139df602283612720565b91506139ea82613983565b604082019050919050565b60006020820190508181036000830152613a0e816139d2565b9050919050565b7f496e76616c696420616464726573730000000000000000000000000000000000600082015250565b6000613a4b600f83612720565b9150613a5682613a15565b602082019050919050565b60006020820190508181036000830152613a7a81613a3e565b9050919050565b7f4e487b7100000000000000000000000000000000000000000000000000000000600052601160045260246000fd5b6000613abb826127d0565b9150613ac6836127d0565b925082821015613ad957613ad8613a81565b5b828203905092915050565b7f4e487b7100000000000000000000000000000000000000000000000000000000600052603160045260246000fd5b60008190508160005260206000209050919050565b60006020601f8301049050919050565b600082821b905092915050565b600060088302613b757fffffffffffffffffffffffffffffffffffffffffffffffffffffffffffffffff82613b38565b613b7f8683613b38565b95508019841693508086168417925050509392505050565b6000819050919050565b6000613bbc613bb7613bb2846127d0565b613b97565b6127d0565b9050919050565b6000819050919050565b613bd683613ba1565b613bea613be282613bc3565b848454613b45565b825550505050565b600090565b613bff613bf2565b613c0a818484613bcd565b505050565b5b81811015613c2e57613c23600082613bf7565b600181019050613c10565b5050565b601f821115613c7357613c4481613b13565b613c4d84613b28565b81016020851015613c5c578190505b613c70613c6885613b28565b830182613c0f565b50505b505050565b600082821c905092915050565b6000613c9660001984600802613c78565b1980831691505092915050565b6000613caf8383613c85565b9150826002028217905092915050565b613cc882612715565b67ffffffffffffffff811115613ce157613ce0612900565b5b613ceb8254613021565b613cf6828285613c32565b600060209050601f831160018114613d295760008415613d17578287015190505b613d218582613ca3565b865550613d89565b601f198416613d3786613b13565b60005b82811015613d5f57848901518255600182019150602085019450602081019050613d3a565b86831015613d7c5784890151613d78601f891682613c85565b8355505b6001600288020188555050505b505050505050565b7f436f756e7465723a2064656372656d656e74206f766572666c6f770000000000600082015250565b6000613dc7601b83612720565b9150613dd282613d91565b602082019050919050565b60006020820190508181036000830152613df681613dba565b9050919050565b6000613e08826127d0565b91507fffffffffffffffffffffffffffffffffffffffffffffffffffffffffffffffff8203613e3a57613e39613a81565b5b600182019050919050565b7f4e487b7100000000000000000000000000000000000000000000000000000000600052601260045260246000fd5b6000613e7f826127d0565b9150613e8a836127d0565b925082613e9a57613e99613e45565b5b828204905092915050565b6000613eb0826127d0565b9150613ebb836127d0565b925082613ecb57613eca613e45565b5b828206905092915050565b6000613ee1826127d0565b9150613eec836127d0565b9250827fffffffffffffffffffffffffffffffffffffffffffffffffffffffffffffffff03821115613f2157613f20613a81565b5b828201905092915050565b6000613f37826127d0565b915060008203613f4a57613f49613a81565b5b60018203905091905056fea264697066735822122050a6c28243f24cc062582be384ac54b9a1bd99180a0636211e915168b372732064736f6c634300080f003368747470733a2f2f73332d75732d776573742d322e616d617a6f6e6177732e636f6d2f756461636974792d626c6f636b636861696e2f63617073746f6e652f",
  "immutableReferences": {},
  "source": "//pragma solidity >=0.4.21 <0.6.0;\r\npragma solidity >=0.4.21 <0.9.0;\r\n// TODO define a contract call to the zokrates generated solidity contract <Verifier> or <renamedVerifier>\r\nimport \"./Verifier.sol\";\r\nimport \"./ERC721Mintable.sol\";\r\n\r\n\r\n\r\n\r\n// TODO define another contract named SolnSquareVerifier that inherits from your ERC721Mintable class\r\ncontract SolnSquareVerifier is EmpireHomesERC721Token{\r\n\r\n    Verifier private verifierContract;\r\n\r\n    constructor(address verifierAddress) {\r\n        verifierContract = Verifier(verifierAddress);\r\n    }\r\n    // TODO define a solutions struct that can hold an index & an address\r\n    struct Solution {\r\n        uint index;\r\n        uint256[2] input;\r\n        uint256 tokenID;\r\n        address owner;\r\n        bool isMinted;\r\n    }\r\n\r\n\r\n    // TODO define an array of the above struct\r\n    mapping(bytes32 => Solution) private solutions;\r\n\r\n    // TODO define a mapping to store unique solutions submitted\r\n    mapping(uint256 => bytes32) private uniqueSolutions;\r\n\r\n\r\n\r\n    // TODO Create an event to emit when a solution is added\r\n    event SolutionAdded(address indexed owner, uint256 indexed tokenID);\r\n\r\n\r\n\r\n    // TODO Create a function to add the solutions to the array and emit the event\r\n    function addSolution(Verifier.Proof memory proof, uint[2] memory input, address account, uint256 tokenID) public {\r\n        require(verifierContract.verifyTx(proof, input), \"unable to verify the solution\");\r\n\r\n        bytes32 solutionKey = keccak256(abi.encodePacked(input[0], input[1]));\r\n        require(solutions[solutionKey].tokenID == 0, \"This solution has already been used previously; You need to create a new one.\");\r\n\r\n        uniqueSolutions[tokenID] = solutionKey;\r\n        solutions[solutionKey].owner = account;\r\n        solutions[solutionKey].tokenID = tokenID;\r\n        solutions[solutionKey].input = input;\r\n\r\n        emit SolutionAdded(account, tokenID);\r\n    }\r\n\r\n\r\n\r\n    // TODO Create a function to mint new NFT only after the solution has been verified\r\n    //  - make sure the solution is unique (has not been used before)\r\n    //  - make sure you handle metadata as well as tokenSuplly\r\n    function mint(address to, uint256 tokenID) public override returns(bool) {\r\n    bytes32 solutionKey = uniqueSolutions[tokenID];\r\n    require(solutionKey != bytes32(0), \"no solution added for given token ID\");\r\n    require(!solutions[solutionKey].isMinted, \"the token has already been minted\");\r\n\r\n    address owner = solutions[uniqueSolutions[tokenID]].owner;\r\n    require(owner == to, \"wrong token owner address provided\");\r\n\r\n    solutions[solutionKey].isMinted = true;\r\n    return super.mint(to, tokenID);\r\n  }\r\n}\r\n\r\n\r\n\r\n  \r\n\r\n\r\n\r\n\r\n\r\n\r\n\r\n\r\n\r\n\r\n\r\n\r\n\r\n\r\n\r\n\r\n\r\n\r\n\r\n\r\n\r\n\r\n\r\n\r\n\r\n\r\n",
  "sourcePath": "C:\\Users\\A240208\\source\\repos\\Udacity Blockchain Projects\\Ethererum\\Blockchain-Capstone\\eth-contracts\\contracts\\SolnSquareVerifier.sol",
  "compiler": {
    "name": "solc",
    "version": "0.8.15+commit.e14f2714.Emscripten.clang"
  },
  "schemaVersion": "3.4.7",
  "updatedAt": "2022-07-30T23:13:59.083Z",
  "devdoc": {
    "kind": "dev",
    "methods": {
      "__callback(bytes32,string)": {
        "details": "The following `__callback` functions are just placeholders ideally      meant to be defined in child contract when proofs are used.      The function bodies simply silence compiler warnings."
      },
      "isApprovedForAll(address,address)": {
        "details": "Tells whether an operator is approved by a given owner",
        "params": {
          "operator": "operator address which you want to query the approval of",
          "owner": "owner address which you want to query the approval of"
        },
        "returns": {
          "_0": "bool whether the given operator is approved by the given owner"
        }
      },
      "setApprovalForAll(address,bool)": {
        "details": "Sets or unsets the approval of a given operator An operator is allowed to transfer all tokens of the sender on their behalf",
        "params": {
          "approved": "representing the status of the approval to be set",
          "to": "operator address to set the approval"
        }
      },
      "supportsInterface(bytes4)": {
        "details": "implement supportsInterface(bytes4) using a lookup table"
      },
      "tokenByIndex(uint256)": {
        "details": "Gets the token ID at a given index of all the tokens in this contract Reverts if the index is greater or equal to the total number of tokens",
        "params": {
          "index": "uint256 representing the index to be accessed of the tokens list"
        },
        "returns": {
          "_0": "uint256 token ID at the given index of the tokens list"
        }
      },
      "tokenOfOwnerByIndex(address,uint256)": {
        "details": "Gets the token ID at a given index of the tokens list of the requested owner",
        "params": {
          "index": "uint256 representing the index to be accessed of the requested tokens list",
          "owner": "address owning the tokens list to be accessed"
        },
        "returns": {
          "_0": "uint256 token ID at the given index of the tokens list owned by the requested address"
        }
      },
      "totalSupply()": {
        "details": "Gets the total amount of tokens stored by the contract",
        "returns": {
          "_0": "uint256 representing the total amount of tokens"
        }
      }
    },
    "version": 1
  },
  "userdoc": {
    "kind": "user",
    "methods": {},
    "version": 1
  }
}